:020000040800F2
:10000000B1AA010000000000000000000000000094
:1000100000000000000000000000000000000000E0
:1000200000000000000000000000000000000000D0
:1000300000000000000000000000000000000000C0
:1000400000000000000000000000000000000000B0
:1000500000000000000000000000000000000000A0
:100060000000000000000000000000000000000090
:100070000000000000000000000000000000000080
:100080000000000000000000000000000000000070
:100090000000000000000000000000000000000060
:1000A0000000000000000000AE2900080000000071
:1000B0000000000000000000000000000000000040
:1000C0000000000000000000000000000000000030
:1000D0000000000000000000000000000000000020
:1000E0000000000000000000000000000000000010
:1000F0000000000000000000000000000000000000
:1001000000000000000000000000000000000000EF
:1001100000000000000000000000000000000000DF
:1001200000000000000000000000000000000000CF
:1001300000000000000000000000000000000000BF
:1001400000000000000000000000000000000000AF
:100150000000000000000000000000007370043088
:10016000170500001305C5FF8545F605637BB5003F
:1001700089816378B500170500001305C5002E9529
:1001800002859302002073A0027D970200009382F3
:1001900062E773907230973200009382620E739020
:1001A000C27E73E0C07E973200009382A2057390F6
:1001B0005230970100189381E16A178100181301EA
:1001C00061E4174500001305E5D0970500189385F5
:1001D00065E317060018130666E963FAC500832273
:1001E000050023A0550011059105E3EAC5FE17059A
:1001F00000181305A5E79385018D6377B5002320CB
:1002000005001105E36DB5FE73F0023217350000ED
:100210001305251FEF30801BEF300022014581457B
:10022000EF00100B6F30201B01A073E002328280C0
:0802300073F00232828000002D
:10024000AA19000884190008BA190008D61900086C
:10025000EC190008021A00081A1A0008321A0008DD
:10026000481A0008CC1A00086166706E756D204B44
:100270004D4754504500000044454D4F3A204E75BF
:100280006D6572696320537472696E6700000000C7
:10029000436F756E7465723A200000005570746982
:1002A0006D653A006D53000053637265656E3A00E8
:1002B00044454D4F3A2050726F66696C6520656EFB
:1002C000670000007C54696D655B735D7C4350552D
:1002D000205B255D0000000054696D657C00000016
:1002E0004C4344207C00000044454D4F7C000000FE
:1002F00044454D4F3A20456E67204E756D20436F43
:100300006C6F7200BC0E0008F80E0008560F000853
:10031000C40F00084E100008E6100008D8110008AD
:10032000581300080000000000000000000000005A
:100330000000000000000008080808080808000085
:100340001818000000486C24120000000000000093
:10035000000000000000002424247F1212127F12EB
:10036000121200000000081C2A2A0A0C1828282A49
:100370002A1C080800000022251515152A58545477
:10038000542200000000000C1212120A76252911D6
:10039000916E00000006060403000000000000004B
:1003A000000000000040201010080808080808108D
:1003B000102040000002040808101010101010084F
:1003C000080402000000000008086B1C1C6B0808F1
:1003D0000000000000000000080808087F08080866
:1003E0000800000000000000000000000000000005
:1003F000060604030000000000000000FE000000EC
:1004000000000000000000000000000000000000EC
:10041000060600000000804040202010100808045C
:1004200004020200000000182442424242424242BA
:1004300024180000000000080E0808080808080832
:10044000083E00000000003C424242202010080408
:10045000427E00000000003C424220182040404202
:10046000221C0000000000203028242422227E20AC
:10047000207800000000007E0202021A264040425E
:10048000221C0000000000382402021A26424242C8
:10049000241800000000007E22221010080808081E
:1004A000080800000000003C424242241824424256
:1004B000423C000000000018244242426458404080
:1004C000241C0000000000000000181800000000BC
:1004D00018180000000000000000000800000000E4
:1004E000000808040000004020100804020408105E
:1004F000204000000000000000007F0000007F009E
:100500000000000000000002040810204020100835
:10051000040200000000003C42424640201010004F
:10052000181800000000001C225A555555552D4240
:10053000221C00000000000808181414243C224269
:1005400042E700000000001F2222221E22424242F7
:10055000221F00000000007C424201010101014213
:10056000221C00000000001F22424242424242423E
:10057000221F00000000003F4212121E121202420F
:10058000423F00000000003F4212121E12120202FF
:10059000020700000000003C22220101017121221B
:1005A000221C0000000000E7424242427E424242DA
:1005B00042E700000000003E080808080808080894
:1005C000083E00000000007C1010101010101010E9
:1005D0001010110F0000007722120A0E0A121222C8
:1005E000227700000000000702020202020202025B
:1005F000427F000000000077363636362A2A2A2A43
:100600002A6B0000000000E346464A4A52525262FA
:10061000624700000000001C22414141414141412C
:10062000221C00000000003F424242423E02020201
:10063000020700000000001C2241414141414D538E
:10064000321C60000000003F4242423E1212222251
:1006500042C700000000007C4242020418204042D1
:10066000423E00000000007F49080808080808080A
:10067000081C0000000000E742424242424242425F
:10068000423C0000000000E74242222424141418D7
:10069000080800000000006B4949494955553622B9
:1006A00022220000000000E7422424181818242405
:1006B00042E700000000007722221414080808080E
:1006C000081C00000000007E2120101008040442D5
:1006D000423F0000007808080808080808080808D1
:1006E000080878000000020204040808081010201E
:1006F00020204040001E101010101010101010107C
:1007000010101E000038440000000000000000002F
:1007100000000000000000000000000000000000D9
:10072000000000FF000608000000000000000000BC
:1007300000000000000000000000003C427844423D
:1007400042FC0000000000030202021A264242425C
:10075000261A0000000000000000003844020202D7
:10076000443800000000006040404078444242426B
:1007700064D80000000000000000003C427E02023D
:10078000423C0000000000F08808087E08080808C5
:10079000083E0000000000000000007C22221C0235
:1007A0003C42423C000000030202023A46424242FE
:1007B00042E700000000000C0C00000E08080808CA
:1007C000083E0000000000303000003820202020CB
:1007D0002020221E0000000302020272120A1612DA
:1007E000227700000000000E080808080808080822
:1007F000083E0000000000000000007F92929292EC
:1008000092B70000000000000000003B4642424258
:1008100042E70000000000000000003C424242426B
:10082000423C0000000000000000001B2642424243
:10083000221E0207000000000000007844424242ED
:10084000447840E000000000000000774C040404FD
:10085000041F0000000000000000007C42023C4039
:10086000423E0000000000000008083E080808089A
:1008700008300000000000000000006342424242D5
:1008800062DC000000000000000000E742242414A5
:100890000808000000000000000000EB4949555521
:1008A0002222000000000000000000762418181822
:1008B000246E000000000000000000E74224241421
:1008C00018080807000000000000007E2210080839
:1008D000447E000000C02020202020102020202066
:1008E0002020C00010101010101010101010101048
:1008F000101010100006080808080810080808085A
:10090000080806000C32C2000000000000000000D1
:100910000000000021FFB1053A3AFFB2053A3AFF64
:10092000B3053A3A053A3AFFB403FFC0620204FF46
:10093000C1C0FFC20D00FFC38D6AFFC48DEEFFC5AD
:100940000EFFE0100E02030E0702070A12273700FF
:100950000D0E10FFE1100E03030F0602080A132606
:1009600036000D0E10FF3A55FF3678FF29FF11FFB4
:10097000FF00000000CA9A3B00E1F5058096980050
:1009800040420F00A086010010270000E80300008D
:10099000640000000A000000010000006E6D690A9A
:1009A00000000000747261700A0000000A50726F4B
:1009B0006772616D20686173206578697465642071
:1009C0007769746820636F64653A000030780000CE
:1009D00000010202030303030404040404040404E6
:1009E00005050505050505050505050505050505B7
:1009F0000606060606060606060606060606060697
:100A00000606060606060606060606060606060686
:100A10000707070707070707070707070707070766
:100A20000707070707070707070707070707070756
:100A30000707070707070707070707070707070746
:100A40000707070707070707070707070707070736
:100A50000808080808080808080808080808080816
:100A60000808080808080808080808080808080806
:100A700008080808080808080808080808080808F6
:100A800008080808080808080808080808080808E6
:100A900008080808080808080808080808080808D6
:100AA00008080808080808080808080808080808C6
:100AB00008080808080808080808080808080808B6
:100AC00008080808080808080808080808080808A6
:100AD000130101D07D5781473AD03AD43ADCBAC0ED
:100AE000BAC8BACCBAD4BAD8232E112E232C812E50
:100AF0003ED23ED63EDEBEC2BECABECEBED6BEDAF6
:100B000013052060D147232A912E2328212F232645
:100B1000312F2324412F2322512F2320612F232ED5
:100B2000712D232C812D232A912D2328A12D2326BD
:100B3000B12D230C0100230801022304010423002A
:100B400001062328F12A2306010A232A012A232C3D
:100B5000012A230E012AEF20803A13054060EF207E
:100B6000003A89660D46C14537150140EF20402601
:100B70003714014089460D46C14513050480EF2016
:100B8000202591460D46C14513050480EF204024E1
:100B90000546896537150140EF20402E05468945F9
:100BA00013050480EF20802D054691451305048030
:100BB000EF20C02CEF10505B2809EF009045B9479B
:100BC000056602D93EDB0147D145130636E01545DF
:100BD0003308B7028146B307D80093870702860718
:100BE0008005A297239CC7DC8506E396B6FE050721
:100BF000E310A7FEB70715003EDDB707550593873D
:100C000007543EDFB7B715A893870780BEC1B7B7B3
:100C100055AD938707AABEC3B757BF529387A72A7C
:100C2000BEC5B757FF579387A77EBEC7B707EBFF71
:100C30009387F7ABBEC92809FD57231AF10C23226D
:100C4000012A2304012A2326012AEF0070690810D3
:100C5000EF00F0142818EF0090148808B70B080074
:100C6000370C0008EF00B01301499949930A400678
:100C7000014AB70C0020C10B130C4C30B704002004
:100C800085452808EF00F030138B4C09635C050A9A
:100C900037150140914513050580EF20E01D83279E
:100CA0000B008983858B85C783470B003714014070
:100CB0009145ED9B130504802300FB00EF20A01C51
:100CC0000546098E914513050480EF20201B8327DC
:100CD0000B00858B638E071683470B008808F99BF2
:100CE0002300FB00EF00B00B832EC12A0354412ADE
:100CF000835D612A034D812A514305488D46C948C9
:100D0000130E411A639F0E18B3876D029805A297C0
:100D1000938707028607BA9703D787DD13761700F4
:100D200063190611799B239CE7DC05831377F7078A
:100D30005DEB050D137DFD0F63E6880E050442048F
:100D40004180C9B793073006E3DBA7F483270B0084
:100D5000858BBDCF83470B0093E74700050A23002F
:100D6000FB000810420AEF009003135A0A01B37700
:100D70005A0399E783470B0093E727002300FB0002
:100D800085679387479CB367FA0291FB896537159E
:100D90000140EF20400F0546098E89653715014057
:100DA000EF20C00DB70700209387070703C7070090
:100DB0001377F70FE30507EE23800700194793F732
:100DC000F90F636CF70093F9F90F85090149C1BD6B
:100DD00083470B0093E7170051B701498149C1B51B
:100DE000814D014405B793173400231DF1089397F3
:100DF0004D00231CF108228693070008EE85280980
:100E000072D52306010B5ECF3ED12302010AEF10FB
:100E1000B027854E014DC9488D465143130E411AE6
:100E2000054819BFE3EEB6FB850DC20D93DD0D013C
:100E30004DBF63F5A605814E014DA8002312812AFE
:100E40002313B12B2304A12B2326D12BEF00300633
:100E500003240B0005800588E30404E2A810EF00DA
:100E6000007483470B00F59B2300FB009D4763E460
:100E7000370793972900E2979C43828763E98800AC
:100E8000050442044180050D137DFD0FB5BD63E8E7
:100E9000B601850DC20D93DD0D010144EDB7814D05
:100EA000EDBF8547E39BFEF8280976C4EF00702B61
:100EB00059D1050DA24E137DFD0F41B763110902F3
:100EC0002809EF00905281452809856AEF106003D8
:100ED0002289938A8A388810EF00607D55B33705E0
:100EE00000209385C40713058507EF10903DAA8560
:100EF0002809EF100001C5B7631C09002809EF009D
:100F0000D04E81452809EF00D07F2289A94AE1B758
:100F1000370500209385C40713054507EF10703A85
:100F20002A8B370500209385C40713050508EF10A9
:100F3000B0432A84370500209385C4071305C508EC
:100F4000EF10904293168B012A86E186A28528092C
:100F5000EF10201A49B7E30309FA370500209385FB
:100F6000C40713054507EF10D0352A8B370500203D
:100F70009385C40713050508EF10103F2A84370531
:100F800000209385C4071305C508EF10F03D370D09
:100F900000202AC69385C40713058D07EF10703211
:100FA0002AC49385C40713058D07EF10903122479B
:100FB000324693168B01AA87E186A2852809EF1095
:100FC000E00511BF631D09002809EF0010428145AB
:100FD0002809EF0010732289930AA00FEDBD370591
:100FE00000209385C40713058508EF10902D2A84EF
:100FF000014B370D00209377FB0F63FE870093852D
:10100000C40713054D07EF10D02BFC18DA97238087
:10101000A700050BCDB79C05370500203E949385AE
:10102000C40713050508230E04DAEF10F0332A84F1
:10103000370500209385C4071305C508EF10D0328B
:101040002A86F418A2852809EF10801D69B5E30DE2
:1010500009F6370500209385C40713058508EF10AE
:1010600050262A84014B370D00209377FB0F63FE37
:1010700087009385C40713054D07EF109024FC18D3
:10108000DA972380A700050BCDB79C053705002014
:101090003E949385C40713050508230E04DAEF1068
:1010A000B02C2A84370500209385C4071305C50892
:1010B000EF10902B370B00202AC69385C407130529
:1010C0008B07EF1010202AC49385C40713058B07E4
:1010D000EF10301F22473246AA87F418A28528094C
:1010E000EF106002CDBBE30109EEB706000893865E
:1010F0008627014681452809EF108012B707002096
:101100009387C7068043370D000893060D29050411
:1011100005468545280980C3EF108010214BA28623
:101120002D46854528092328612B232A012A232CB3
:10113000012AEF10E07493060D2905468945280918
:10114000EF10000EA2862328612B4D46054B8945E2
:101150002809232A612B232C012AEF106072B7067D
:1011600000089386C62905468D452809EF10400BD7
:10117000370400089306442A49468D452809EF1094
:10118000200AA947814508182328F12A232A612B20
:10119000232C012AFD2BAA8645468D452809EF10F0
:1011A000206EB70600089386862A054691452809D1
:1011B000EF1000079306442A494691452809EF108D
:1011C00020068145A800EF004062AA864546914569
:1011D0002809EF10E06A01B3E30809DEB70600084A
:1011E0009386062B014681452809EF106003B70658
:1011F00000089386462C114685452809EF104002C9
:10120000B70600082A849386862D01468945280959
:10121000EF1000019306C00731462A94894528093A
:10122000EF00306D42049D474180755D2A9423286C
:10123000F12A814585470818232AF12A232CF12A0F
:10124000230EA12BB9232A8BAA862D468945420459
:101250002809EF10E06241802A94B70600089386BF
:10126000062E01468D4542042809EF00707B41801F
:101270002A949306C00731468D4542042809EF00A1
:10128000506741802A948145A8008523AA862AC4F4
:101290002D468D452809EF10A05EA2474204E16D5E
:1012A000938D0D6A4180B395B7032A941357FB4180
:1012B000BA865A863AC6230EA12B42044180338552
:1012C000B703EF20604FAA864D468D452809EF10E1
:1012D000205B2A94B70600089386862E0146914526
:1012E00042042809EF00D07341802A949306C00776
:1012F0003146914542042809EF00B05F41802A94AD
:1013000081458810DD21AA862AC42D4691452809E9
:10131000EF100057A24732475A86B395B703BA86F3
:10132000230EA12B420441803385B703EF20C04830
:10133000AA864D4691452809EF108054B306A400B3
:101340009147C2062328F12A232A012A232C012AA5
:10135000C18601468545ADBD370B00209385C40786
:1013600013058B07EF10E0759385C40713058B07F2
:10137000EF102075E30A09C4B70600089386062F0C
:10138000014681452809EF00B069B7060008938639
:10139000462C114685452809EF009068B7060008DD
:1013A0002A849386862D014689452809EF005067D7
:1013B0009306C00731462A9489452809EF007053E7
:1013C00042049D474180F55D2A942328F12A8145F6
:1013D00085470818232AF12A232CF12A230EB12B42
:1013E0004D2E2A8DAA862D46894542042809EF10E4
:1013F000204941802A94B70600089386062E0146AC
:101400008D4542042809EF00B06141802A9493067B
:10141000C00731468D4542042809EF00904D4180B8
:101420002A948145A800D126AA862AC42D468D4536
:101430002809EF10E04422474204E1679387076AD6
:101440004180B315F7022A941358FD41C2866A867B
:1014500042C6230EB12B420441803305F702EF2030
:10146000A035AA864D468D452809EF1060412A9483
:10147000B70600089386862E014691454204280946
:10148000EF00105A41802A949306C00731469145D7
:1014900042042809EF00F04541802A9481458810D4
:1014A000A926AA862AC42D4691452809EF10403D59
:1014B0002247E1679387076AB315F70232486A86C5
:1014C000230EB12BC286420441803305F702EF2080
:1014D000A02EAA864D4691452809EF10603A2A941D
:1014E0009385C40713058B07EF10A05D2A8D9385A4
:1014F000C40713058B07EF10C05C370700201307E4
:101500008706834707004204BD46850793F7F70F18
:1015100041802A8663EFF60093160401C1862300FA
:10152000F70091472328F12A232A012A232C012A94
:101530000DB5EA85280923000700EF00E0702A9422
:1015400093160401C186F1BFB7070020054723AEFB
:10155000E706E1773707002093C707E2231AF7066B
:10156000B7070020938707081147D8C323A00700B7
:10157000B70700209387C7084D47D8C323A00700AB
:10158000856737070020938707F0231CF7068967D4
:1015900037070020938707902314F70882804111B2
:1015A00022C406C62A84EF109030B24008C04CC056
:1015B000224441018280371501408545130505C04D
:1015C0006F10900B371501408545130505C06F104E
:1015D000700AB737014098439316470163D006025B
:1015E0009843FD769386F67F1377F7FB98C398436D
:1015F000758F98C398431367070498C38280B737E1
:1016000001409443056713070780F98E81EE9443E8
:1016100093F6F6FB94C39443558F98C3984313678E
:10162000070498C3828085674111938747A62316D4
:10163000F10085472A872307F100814605480145C7
:10164000FD1513030003094E8D487C00B69783C730
:101650000700636FF7023358F7026347B5002300B2
:101660000600014541018280B30EA600130808035D
:101670003377F7029307150023800E0113F5F70F58
:1016800001488506E39316FD2A9623000600D9BF7C
:1016900063040800E397C6FFE353B5FCB307A60055
:1016A000238067009307150013F5F70FD9BF834711
:1016B0000500011122CC4AC852C406CE26CA4EC625
:1016C00003298500032AC5002A84A9E3854723004E
:1016D000F50081448149EF10901D08C42695B3346C
:1016E0009500AE99B3072541CE943335F500B38408
:1016F0004441898C44C8F2404CC41CC86244D24462
:101700004249B249224A0145056182800449832940
:101710004501D1B711C58547630EF50001458280AB
:10172000B707002003A507069307803E3355F5024F
:1017300009818280B707002003A50706B7470F007D
:1017400093870724E5B7411126C206C622C4AE849A
:10175000D13715CD2A8433049402EF105015930726
:10176000140033B48700B384A700B3B7F4002E94F9
:101770003E94EF10D013E3EE85FE6314B400E36AE9
:1017800095FE0145B24022449244410182800545C4
:10179000D5BF011106CE22CC26CA4AC84EC652C4B5
:1017A00056C2AA8483298500832AC5002E8AEF1099
:1017B00010102A8488C8CCC82380040052852E8942
:1017C000913F2A86330534413334A400B30559418F
:1017D000818D8146EF20E038F2406244D244424994
:1017E000B249224A924A056182808347050041112D
:1017F00022C406C62A847D5589CB2E85213F2A86A0
:101800004C4808488146EF20C035B240224441018F
:10181000828001111305206006CE22CC4AC84EC634
:1018200026CAEF10C06D13053060EF10406D130530
:101830000060EF10C06C13050050EF10406C1305F2
:10184000C060EF10C06B371401401305048093068D
:10185000000A0D46E145EF10A0570D469D461305C1
:1018600004C0C145EF10C056B13B130504C0894503
:10187000EF108060130504C09145EF10A05F85450F
:101880000145D135130504C08945EF10A05E95458B
:101890000145553D37350140EF10E0698545370575
:1018A0000240EF10A02C894537050240EF10002CB4
:1018B0000D67B707024093060708D4CF410798DBAE
:1018C000373701409306C700D4D394DF93074031E4
:1018D0001CC389475CC337350140EF10A06A13056C
:1018E00004C0914537140008EF10005913044491C7
:1018F000B73901401309F00F83A7890093F7070850
:10190000E5FFC1394D398345040037350140930463
:101910001400EF10C067834714006386270383A772
:10192000890093F70708E5FF713983C50400638CCC
:10193000250183A78900898BEDDF373501408504B8
:10194000EF10E064DDB783C7140013841400E3953F
:1019500027FBF2406244D2444249B2490145056145
:101960008280411122C406C68347450125472A8447
:101970006365F716370700088A0713070724BA9725
:101980009C438287B73701409C4793F7070891EF44
:10199000893115319305A00237350140EF10205FE2
:1019A000834744018507230AF40003454401B240FC
:1019B00022443335A00041018280B73701409C4763
:1019C00093F70708FDF32539F53E83552400850577
:1019D000C205C181D1B7B73701409C47898BF1D788
:1019E0008355250083576500BE95DDB7B7370140A5
:1019F0009C4793F70708D5FBE93E753E9305B00277
:101A000061BFB73701409C4793F70708D9FFC53E30
:101A1000553E83550400E90565BFB73701409C4733
:101A2000898BC1D78355050083574500BE95E505D1
:101A300045B7B73701409C4793F70708BDF7513EBC
:101A40009D3E9305C00289BFB73701409C4793F77D
:101A50000708A1FF853E6536894537050240EF102E
:101A6000601713060040894537050240EF10001D3E
:101A700013060010894537050240EF10E01E83472A
:101A8000C40085EB1048894537050240EF10C016A9
:101A9000894537050240EF10A01F104489453705DE
:101AA0000240EF106017894537050240EF10201003
:101AB000C5BD13060401894537050240EF10C01368
:101AC000894537050240EF10001FC1BFB7370140FD
:101AD0009C4793F70708E39A07EC230A0400F1B543
:101AE0004111B707A00022C406C6938707055CC151
:101AF0008D67938707201CC585472A84232005000E
:101B00002306F50023180500230AF5002285913DE0
:101B100075FDB24022440D65130505204101828008
:101B200071C2AA862E85E9C19307F00F63E5D7003D
:101B300013F5F60FCDBCB727E80341119387077162
:101B40003EC2B7070A00938747063EC485473287DF
:101B50002316F10093084100154605488147FD15FD
:101B6000130E0003954E114F03D5080063EAA60437
:101B700033D8A6021373F80F63C8B7002300070019
:101B800081473E85410182801378F80F33050503B4
:101B9000B30FF70013030303850723806F0093F748
:101BA000F70F01483385A64093160501C1827D16C3
:101BB0001376F60F89084DFA3E9723000700D1B738
:101BC000630808003385CE401375F50FE311E5FF78
:101BD000E3D6B7FA3305F70085072300C50193F76D
:101BE000F70FF1B7014582808280411106C639475F
:101BF00058CD3707150018D1370755051307075477
:101C000058D137B715A81307078018D537B755AD82
:101C1000130707AA58D53757BF521307A72A18D951
:101C20003757FF571307A77E58D93707EBFF13071E
:101C3000F7AB18DD7D57232C0500231EE5024D353B
:101C4000B2400145410182803D476349B72AAA87D6
:101C500005456347C72A03AF8701797122D626D489
:101C60004AD24ED052CE56CC83AEC701638BE50D1F
:101C7000631AD6198CCF01480145930F8002514E4B
:101C80009142B2059303E0050D44954EB308F80365
:101C900001463303C803BE9803D708042316E100A6
:101CA0003307C3001307070206073E9703570700D1
:101CB0009356C7006398E60705831377F70763ED2C
:101CC000E20463118706B306C30093860602860604
:101CD000BE9683D406008346C10013D98400858A4A
:101CE0001379F900858899E683D68710854485069F
:101CF0002394D710B306C3000607458F93860602C8
:101D00009314890005058606458F4205BE964D8FC2
:101D100041852390E60039A0930607FE93F6F60F5F
:101D2000E3F3D3FA05068908E318C6F70508E31FAD
:101D3000D8F53254A25412598259724AE24A456186
:101D400082806301D60DD0CF3D8A01480145930FB3
:101D50008002514E114F22069303E0059542B308CD
:101D6000F80381453303C803BE9803D7080423163C
:101D7000E1003307B3001307070206073E97035736
:101D8000070093568700BD8A6396D60705831377AD
:101D9000F707636BEF04631FE705B306B300938691
:101DA00006028606BE9603D406008346C1009354FD
:101DB000C400858A058899E683D687100544850680
:101DC0002394D710B306B3000607418F938606020B
:101DD00005058606518F1394C4004205BE96418FB7
:101DE00041852390E60039A0930607FE93F6F60F8F
:101DF000E3F5D3FA85058908E399C5F70508E310EB
:101E000058F605BF8CCFD0CF014E014801451309CC
:101E1000800251449142BD899304E0058D493D8A79
:101E2000154AB30F2E030143B3038E02BE9F03D79F
:101E30000F042316E1003387630013070702060728
:101E40003E978356070013D7160093D88600B182B9
:101E50001377F70793F8F800639FE60163E7E20062
:101E6000631B3701AE86054839A0930A07FE93FA33
:101E7000FA0FE3F954FF6392D80763EAE204631EA2
:101E80005704B2880348C10013781800630108069C
:101E9000338863001308080206083E98834A080046
:101EA00093FA1A00338863000607130808023367A1
:101EB0005701A2080505060833671701B2063E98C8
:101EC0004205558F2310E8004185054809A8930A6B
:101ED00007FE93FAFA0FE3F654FBE31508FA05033D
:101EE000890FE31683F4050EE31D4EF399B503D86D
:101EF0008710854A0508239407116DB70545828030
:101F00008280BD4763E2B70693F7F5003E8EA207D5
:101F100093E77700B205814651488D4EDD8D15431C
:101F2000B38806030147B387E80093870702860753
:101F3000AA9783D7070013D617001376F607631501
:101F4000D601B183638AC701B387E800938707028C
:101F50008607AA972390B7000507E31607FD8506B5
:101F6000E39066FC0145828005458280411123167D
:101F7000B10032472314C100A24705831377F70746
:101F80008583930607FE114693F7F70793F6F60F3E
:101F9000636EE604636CF6048347C1000347810067
:101FA00001453D8F1377E70F0DE793F7E70F138791
:101FB000E7FF1377C70F054509CF1947639DE70072
:101FC0000345D100834791003D8D1375050F1335EF
:101FD00015004101828021470145E39CE7FE03454E
:101FE000D100834791003D8D3D89D5B71307E005AA
:101FF0000145E360D7FE811793F7F70FE36BF7FC1A
:102000008347C10003478100B98F93F7E70FF1F3CE
:102010000345D100834791001D8D55BFBE88914770
:1020200063E6B70CCD477D5863E3C70CBD4763C07B
:10203000E70C63CE170B938706FE93F7F70F130E8B
:10204000E0056366FE0A79718357C10026D2937456
:10205000F70093E7170013F7F6074ECE93F717F044
:10206000931917007D775AC893F8F800130BF70FF0
:10207000B3E7370122D456CA13948800B3F7670137
:10208000856AC18FFD1AB204B3F75701C58F2316B5
:10209000F100D147B387F50252CC06D64AD0B297A9
:1020A000938707028607330AF50003590A00324670
:1020B000CA856D3D014805E113691900137919F0CE
:1020C00033E7290133776701598C33745401458C08
:1020D00023108A000548B250225492540259F24902
:1020E000624AD24A424B4285456182807D58428590
:1020F00082805C4D184D411106C60D37B240333514
:10210000A000410182801D71A6CAD6C286CEB68AC1
:10211000A2CCCAC8CEC6D2C4DAC05EDE62DC66DA41
:102120006AD86ED69146FD5463ECB60CCD46328922
:10213000FD5463E7C60CBD4663C4E60C63C2F60CEF
:1021400063800A0CD14D338BB5033D8BBD8B7D7CF9
:10215000856C416DAA8B81449306E00593998700B5
:10216000130CFC0F131AC700FD1C7D1D03840A000D
:1021700041C89377F90F6385B7091374F407930780
:1021800004FE93F7F70F63EAF6068357C1010604CE
:1021900033072B0193E7170093F717F0C18FB3F7BD
:1021A0008701B3E73701B3F7970113070702B3E7D6
:1021B00047010607231EF1005E978357070072460A
:1021C0005E85B3F5A7013AC63EC44D339306E005DC
:1021D0000DE5A2473247850493E7170093F717F000
:1021E000C18FB3F78701B3E7F900B3F79701B3677E
:1021F000FA00C2042310F700C1840509850ABDB79F
:10220000F64066444649B649264A964A064BF25B72
:10221000625CD25C425DB25D2685D64425618280D7
:102220005C4D184DCDB57571CEDE06C7BE8922C591
:1022300026C34AC1D2DCD6DADAD8DED6E2D4E6D278
:10224000EAD0EECEBD4763D3E7027D5CBA402A44B4
:102250009A440A49F659665AD65A465BB65B965C6A
:10226000065DF64D6285265C49618280E3CF37FDCD
:102270009147AE8AE3EBB7FC032C8521832BC52164
:10228000328B3A8903260522AA8C1377FC0F9377A9
:10229000FB0F638D0B0A93841700998C93F4F40F52
:1022A0004D47E36497FA13FAF70F6373F7004D4A4B
:1022B0006313061663D3060A9307D002230EF100B8
:1022C0003304D0409307E00F63EF87081306D10172
:1022D000AD451375F40FEFF00FB525D90505137D46
:1022E000F50FE3040DF613F4F900937DF900A289CC
:1022F000635EAC1DD145B38ABA0222041364740430
:102300003209336924014164014C7D1493F7F40FC1
:10231000E36EFAF2B3899A009389090286092314BD
:102320002103E69983D5090022566685E18D3D3962
:1023300001ED83D78C10050C23902901420C8507F1
:10234000135C0C412394FC108504C9B79384F7FFF8
:102350002697BE849377F70FA1B79307B002230E99
:10236000F100368485B7C1671387E7FF636B870089
:10237000131504011306D101AD454181EFF04FFA69
:10238000A9BFFD176317F4001306D101AD452285DF
:10239000F5B7B715000813068002938545972810F6
:1023A000EF108010381085460145814725461303FC
:1023B0000003A9480C436363B404B356B40213F892
:1023C000F60FE364A6E893F6F60FB386B602130E93
:1023D00001052A9E130808030505A3060EFD1375C3
:1023E000F50F158C8146850793F7F70F1107E393D7
:1023F00017FD9C08AA97A38607FCC5B599C2E3946C
:10240000C7FEE364A6E48C08AA950505A38665FCCF
:102410001375F50FC9BF03854C2263DE06029307CF
:10242000D002230EF100B306D040616689650148F1
:102430001306F6699385F5709308703E294711439A
:102440001378F80F637FD602B3D6E6020508620858
:1024500013588841F5B79307B002230EF100F1F647
:1024600093070003A30EF1008D679387E702231FF4
:10247000F100B7372000938707033ED01D4D050DAF
:102480009DB563F0D502B3D7E602B3F6E602636604
:10249000D30093960701C18655BF93861700C206E5
:1024A000DDBF63EBD832B386E6027D184DB78D47AA
:1024B0003367F8020D08050762073348F8026187A1
:1024C00025AEB2878DAE2300EE0169AE63950B1881
:1024D00063460B126A9B5148014C63416813338871
:1024E0000A03FD778566C168931984009387F70F07
:1024F000B20DFD16FD1878085E97034B07000357D1
:10250000810233867401137BFB0713671700060BE8
:10251000137717F0336767017D8F33673701758F46
:102520003367B7012314E1023307C800130707021A
:10253000060742C63383EC00035703002256668524
:10254000B37517011AC43AC2EFF05FA2C16793884E
:10255000F7FF85679386F7FFFD7732489387F70F7C
:1025600015E912472243050C13671700137717F07C
:102570003367EB007D8F33E7E900758F33E7ED00BC
:102580002310E30003D78C10420C135C0C410507A9
:102590002394EC10850B13F7FB0FE36EA7F5D145E1
:1025A000B38ABA0222041364140432093369240181
:1025B0004164269D7D14B3079D4093F7F70FE367B1
:1025C000FAC8B389AA019389090286092314210351
:1025D000E69983D5090022566685E18DEFF01F99B3
:1025E00001ED83D78C10050C23902901420C85073F
:1025F000135C0C412394FC10050D75BFD145B38AC3
:10260000BA02220413647404320933692401416458
:10261000014C7D1493F7F40FE36AFAC2B3899A0070
:1026200093890902860923142103E69983D50900B9
:1026300022566685E18DEFF07F9301ED83D78C10F4
:10264000050C23902901420C8507135C0C4123944F
:10265000FC108504C1B785476398FB06B307AB41FF
:102660007D5763C6E700CD47014C63D06707D1456E
:10267000B38ABA0222041364740432093369240150
:102680004164014C7D1493F7F40FE361FABCB38904
:102690009A0093890902860923142103E69983D5B8
:1026A000090022566685E18DEFF05F8C01ED83D73E
:1026B0008C10050C23902901420C8507135C0C41FA
:1026C0002394FC108504C1B7014C514B338B6A0332
:1026D0002204136414043209C16B330AAA4133691A
:1026E0002401FD1B63429A0433049B00130404027B
:1026F000060423142103669483550400225666853C
:10270000B3F57501EFF09F8601ED83D78C10050CB2
:1027100023102401420C8507135C0C412394FC1008
:10272000850493F4F40F7DBFD145B38ABA02FD7BD3
:10273000139ACD00C167856D014BA209938BFB0FE6
:10274000FD1DFD1778085A970344070003578102BF
:10275000338964011374F4071367170006041377B1
:1027600017F0418F33777701336737015699337705
:10277000B701130909023367470106092314E1026F
:1027800066990357090022566685B375F7003AC269
:10279000EFF0CFFDC167FD1715E91247050C420C9C
:1027A00013671700137717F0418F3377770133E7FB
:1027B000E9003377B7013367EA002310E90003D754
:1027C0008C10135C0C4105072394EC10050B137758
:1027D000FB0FE369A7F79DBC2A986208135888414C
:1027E000E35708CC1347F8FF0D46B367C702050847
:1027F0000D473348C8021D8F1908B7070008938793
:1028000087261378F80F3E98834708009008281011
:102810002301F102B70764009387873E3ED4C16766
:10282000A9073ED6930E01038147130F0003B30897
:10283000E6001303E002035805001306D101330E2E
:10284000F600138617001376F60FE3EE06C7B3D52E
:102850000603938F050393F5F50FB3850503230056
:10286000FE018D8E6317C7008907A38668FC13F6E7
:10287000F70F0905E317D5C5A3010102194D01B1F1
:102880005C4D184D6FF03F9ACD47AA8663EBC70A9F
:102890009148054563E9B80CD147B387F502B29773
:1028A000938707028607B69703D707009357170049
:1028B00093F7F707CDCB05466387C7080946638FB3
:1028C000C7081356C7004106060636960358060089
:1028D0000D466388C70821833D8B4107060736975D
:1028E0000357070063821707811793F5F70F130645
:1028F000E005636AB6066309E80437050008920735
:10290000014613054532A14F414FB385C700AA9533
:1029100003C3050093154600B6958148137E130046
:10292000C28E63030E00BA8E2396D5118508135309
:1029300013008905E394F8FF0506E318E6FD014559
:1029400082800545828001479387C6109386C62002
:102950002390E7008907E39DF6FED5B741677D1711
:10296000E5B74287D5B7828041111305206006C6BE
:10297000792337150140930600100D469145130544
:102980000580B9210D45B12E054685451305A002E8
:10299000A12EA1450145ED290946814513050010E9
:1029A000B526130500100521B240410105AE4111C5
:1029B0001305001006C6D52E0DC1130500102121E8
:1029C0003715014093050010130505806D2911E5A9
:1029D000B707002005472388E706B24041018280FF
:1029E0007D671307D731B377E50291669386761A30
:1029F0003355E5020567130747B1B387D70233059F
:102A0000E50263E5A7003385A74082803707008091
:102A10001347F7FFBA97C5BF79714AD04ECE06D695
:102A200022D426D252CC56CA5AC8834706008344C1
:102A300016002E89B2899D8CB707008013C7C7FF87
:102A40006371970493C7E7FFB3DAF4022A8B3E84DD
:102A500093FAFA0F7000CA855A8523060100A3066F
:102A600051015D3F330A850203250900953F930715
:102A7000F5FF2320A900D297E3EEF4FCE3EC47FD39
:102A800015A0850493C7D7FF33D49702B38484027B
:102A900003250900B1372320A9007D15E37A95FEAF
:102AA000B357850203C50900B25022543E95925493
:102AB0000259F249624AD24A424B1375F50F4561F9
:102AC00082802A8691BF79711C4222D44042370706
:102AD000008026D24ECE1D8C06D64AD052CC56CA85
:102AE0005AC89346C7FFAE84B2899347D7FF63ECB9
:102AF0008602050433D98702330424038840CD3588
:102B000088C07D15E37C85FEB357250303A5090026
:102B1000B250225492540259F249624AD24A424B6C
:102B20003E9545618280630BF4021347E7FF335BF8
:102B3000E402AA8A3A893000A685568502C45AC69C
:102B40005937330A25038840613D9307F5FF88C054
:102B5000D297E362F4FEE3E047FF4DBF8841493579
:102B600088C09307F5FF5DB72A86B1BFB70702405B
:102B7000938707406316F500914763F3B70001A000
:102B8000D147B387F5028A05AA979847799B98C7DA
:102B900023A4070023A6070023A8070023AA0700F1
:102BA0005841BD47B395B700D98D4CC18280B70756
:102BB0000240938707406316F500914763F3B7001F
:102BC00001A0D147B385F5022E951C4593E7170068
:102BD0001CC58280B7070240938707406316F50043
:102BE000914763F3B70001A0D147B385F5022E9555
:102BF0001C45F99B1CC58280B7070240938707409C
:102C00006316F500914763F3B70001A0D147B38580
:102C1000F5022E9550C98280B7070240938707407E
:102C20006316F500914763F3B70001A0D147B38560
:102C3000F502420641822E9550C58280B7070240B8
:102C4000938707406316F500914763F3B70001A02F
:102C5000D147B385F5027D771307F73F2E951C45C5
:102C6000F98F5D8E10C58280B707024093870740B9
:102C70006316F500914763F3B70001A0D147B38510
:102C8000F5022E951C4593F7F7CF5D8E10C5828017
:102C9000B7070240938707406316F500914763F337
:102CA000B70001A0D147B385F5022E951C4593E7E7
:102CB00007081CC58280B707024093870740631648
:102CC000F500914763F3B70001A0D147B385F50242
:102CD0002E951C4593F7F7F71CC58280F3670430E7
:102CE00082801375F50F09A9011106CE22CC26CAE0
:102CF0002A84B2842EC6C52EB24522850D21228596
:102D00006244F240A685D2440561A5A1B7070140FF
:102D100083A607401347F5FFF98E23A0D74083A66B
:102D20004740F98E23A2D74083A68740F98E23A47B
:102D3000D74083A6C740F98E23A6D74085C98546CC
:102D4000638CD5028547630FF60289476309F60451
:102D500031E6B707014083A68740558D23A4A740DD
:102D600083A6C740758F23A6E740828083A60740CD
:102D7000C98E23A0D740F9B783A64740C98E23A2A6
:102D8000D740C9B7B707014083A68740758F23A4F2
:102D9000E74003A7C740598D23A6A7408280B70705
:102DA000014003A78740498FDDB7B706014083A7DD
:102DB00046412A877D8D83A7064009C533F5E70084
:102DC0003335A0008280B707014023AAA740828044
:102DD00093F7050193F8F50099C3B3E8C80081475C
:102DE000054EBD4E130F8002930F8004214333160E
:102DF000FE00758E1DC213972700832205003398AD
:102E0000EE001348F8FF337858003397E800336733
:102E100007016399E50550C918C18507E39967FC67
:102E2000054EBD4E130F8002930F800441433316AD
:102E3000FE00758E05C613972700011783224500F3
:102E40003398EE001348F8FF337858003397E800C2
:102E500033670701639CE50150C958C18507E398B2
:102E600067FC8280E39AF5FB10C97DB7E397F5FF15
:102E700010C9E5B70CC982804CC9828019C20CC93F
:102E800082804CC9828008456D8D3335A0008280D8
:102E900013F735000A07BD47B397E7003315E50080
:102EA0000D4793C7F7FF636BB7003707014014471F
:102EB000F58F1CC71C475D8D08C782801D47636B5B
:102EC000B700370701405447F58F5CC75C475D8DFD
:102ED00048C782802D47636BB70037070140144B0A
:102EE000F58F1CCB1C4B5D8D08CB828037070140D2
:102EF000544BF58F5CCB5C4B5D8D48CB8280135778
:102F00006500B71702403E97144385473395A700E5
:102F1000558D08C38280B7170240135765003E974E
:102F200014438547B397A70093C7F7FFF58F1CC3DA
:102F30008280F1B7CDB74111B747004006C613876D
:102F400007C06308E50237370140630CE50093874B
:102F500007806316F5021305E040E13F1305E040EA
:102F600031A01305C030F1371305C030B240410124
:102F7000D1B71305F040753F1305F040C5BFB2400F
:102F8000410182801C4193E707041CC182804CC52B
:102F90008280B71702409843B706FFE0B106136777
:102FA000170098C3D843758FD8C39843B706F7FE68
:102FB000FD16758F98C39843B706FCFFFD16758FF5
:102FC00098C3D843B70601DFFD16758FD8C323A673
:102FD00007029843B706F7EAFD16758F98C33707BF
:102FE000FF0098C794434167D98E94C39307F7FFB6
:102FF0003717024014431396E60063440600FD179A
:10300000F5FBB717024098439316E70063C3060029
:1030100001A0D843B706C4DFFD16D8C3D843D8C330
:10302000D84313670740D8C3D843758FD8C3D84354
:10303000B7062920558FD8C3D857BD76758FD8D7F6
:10304000D857C166938616F1558FD8D79843B706DF
:103050000004558F98C3B717024098439316470052
:10306000E3DD06FE9843B7060010558F98C3B717E7
:103070000240984393162700E3DD06FE9843B70607
:103080000001558F98C3B717024098439316670005
:10309000E3DD06FED843719BD8C3D84313672700EE
:1030A000D8C3371702405C43A18BF5DF8280B70796
:1030B00000D1D8438843CC43E39DE5FE8280B70727
:1030C00000D223800700A38507009317450037151A
:1030D00000D23E95B71700D263E3A700828023A0F9
:1030E0000700C107D5BFB71700D285070A053E956F
:1030F00085472300F5008280370700D28347070009
:103100000605798993F7170E5D8D2300A70082804D
:10311000B70700D203C5070005813D8982804111B0
:1031200022C426C206C62A84AE84DD3791471147E1
:1031300063E3A7002A87B71600D2131524008D0673
:103140003695834705001376F70FA145B397E7003F
:1031500093F7F70F918DB394B400B3D7E740C58FC1
:1031600093F7F70F2300F500B24022449244410147
:103170008280411122C426C206C6AA842E84493FF9
:103180008D4763EDA702371700D28A040D072697F3
:10319000834707002A86A146918E1204B3D7D740F1
:1031A0001375F40FB397D700C98F93F7F70F230068
:1031B000F700B24022449244410182800145D5BFCC
:1031C000F327503093F707FC93E73700739057309D
:1031D00082800000000000000000000000000000ED
:1031E00000000000000000000000000000000000DF
:1031F00000000000000000000000000000000000CF
:103200005D7106C012C216C41AC61EC82ACA2ECCC8
:1032100032CE36D03AD23ED442D646D872DA76DCB6
:103220007ADEFEC0F322103496C0F322003096C23C
:10323000F322407C96C4732520348A85E12086429F
:1032400073901234964273900230A6427390427C7F
:1032500082401242A2423243C2435245E245724684
:1032600082561257A2573258C258525EE25E725FBF
:10327000864F616173002030000000005D7106C060
:1032800012C216C41AC61EC82ACA2ECC32CE36D0D6
:103290003AD23ED442D646D872DA76DC7ADEFEC026
:1032A00073D0E87E7350F97E73D0B97EF390D07EF0
:1032B00073700430B6427390427CA642739012340D
:1032C00096427390223482401242A2423243C24359
:1032D0005245E245724682561257A2573258C2589A
:1032E000525EE25E725F864F616173002030B715F7
:1032F0000008411115469385C599054506C6BD2CA4
:1033000005451D204111856722C406C6FD172A8484
:103310006313F500E93FB715000815469385459AF4
:103320000545A92C228509207971B715000822D4FA
:103330007D462A849385C59A0A8506D6B5227946A4
:103340008A850945252CA28509450928B715000855
:1033500005469385859A0945152401A079714AD0BF
:103360002E89B715000809469385C59C22D426D21C
:103370004ECE52CC56CA06D6AA84714401243D4A88
:10338000A54AF159B3178A00B3F72701B3D78700CD
:1033900093F7F70F63E9FA0293870703E207E187E0
:1033A00005469305F10026857114A307F100F92263
:1033B000E31A34FDB250225492540259F249624A3F
:1033C000D24A4561828093877703C9BFAA85814627
:1033D00001460145DDA24111B737000822C406C6E7
:1033E000938727642A8499C38145A12CB747000895
:1033F00003A587EC1C5591C382972285353741116F
:10340000B747000822C437440008138707ED1304A8
:1034100004ED198C26C206C60984938407ED11E4D5
:103420002244B2409244410109A67D14931724001E
:10343000A6979C438297E5B74111B747000822C47D
:10344000374400081387C7EC1304C4EC198C26C258
:103450004AC006C6098481441389C7EC6398840274
:103460007D24B7470008374400081387C7EC1304CE
:1034700004ED198C098481441389C7EC639F84008F
:10348000B240224492440249410182809397240031
:10349000CA979C4385048297D1B793972400CA9713
:1034A0009C4385048297D9BFB3C7A5008D8BB30613
:1034B000C50081E78D4763EEC700AA876378D50A08
:1034C00003C7050085078505A38FE7FEE3EAD7FE5E
:1034D000828013773500AA8711CB03C705008507C3
:1034E0008505A38FE7FE13F73700FDB713F7C6FF77
:1034F000130607FE63FBC70483A3050083A24500F0
:1035000083AF850003AFC50083AE050103AE45015F
:1035100003A3850183A8C50123A0770023A2570038
:1035200003A8050223A4F70123A6E70123A8D701D6
:1035300023AAC70123AC670023AE17019385450278
:103540009387470223AE07FF75B72E883E866360D8
:10355000E6021388D7FF0146636607010D071D8F3A
:103560001376C7FFB297B295E3ECD7F48280832835
:10357000080011061108232E16FFD1BFB70700203F
:10358000B2862E86AA8503A5470609A0411122C44A
:1035900026C22A842E85B285368606C623A4018CCF
:1035A000752AFD576316F50083A7818C91C31CC053
:1035B000B240224492444101828037080020832790
:1035C0008809AA888DE7370700201305C709232C2F
:1035D000A80837080000130308009307C709630809
:1035E0000300832708002324F5089307C709D8435D
:1035F0007D487D556346E804638D080203A887086B
:103600006300080413152700429510C10323081016
:1036100005463316E6003363C300232068102320D9
:10362000D50889466397D80083264810558E2322F3
:10363000C810930617000A07D4C3BA978CC7014570
:103640008280797152CC56CA5AC862C406D622D436
:1036500026D24AD04ECE5EC666C2AA8A2E8A370BC2
:103660000020054C03248B09930B8B0911C844409F
:10367000832984081389F4FF8A04A294635F0900F4
:10368000B250225492540259F249624AD24A424BF1
:10369000B24B224C924C45618280630E0A006395C6
:1036A00009007D19F114D9BF93172900CE9783A77C
:1036B0000708E39847FF5840DC407D17631827034D
:1036C00023222401F9DF832C44006388090083A6A8
:1036D000091033172C01F98E89EE8297584083A781
:1036E0000B00E31197F9E30EF4FAADBF23A2040037
:1036F000D1BF93162900CE968C4283A64910758FB0
:1037000001E756858297D9BF2E858297C1BF4111A7
:1037100006C6EFF01F8813057005EFF05F9AEFF013
:103720003FAAB24041016FC05FB08280411126C202
:10373000B744014022C49375F50F2A841385048091
:1037400006C69384048099289D452685A1286DDDB1
:10375000B24022852244924441018280011122CC50
:1037600026CA4AC84EC606CEB2842E843389C50006
:10377000A949631A2401F24062444249B2492685AC
:10378000D24405618280034504004D37834704001D
:10379000639437013545593F0504E1BF93F5F51FA3
:1037A0004CC1828093D7650093F7F73FAA9788436F
:1037B0003355B500058982802A8E014863DA0500F9
:1037C000B337A000B305B0409D8D330EA0407D58A7
:1037D00063DC06003337C000B307D0401348F8FF5E
:1037E000B386E7403306C040B288B68FF28E2E8390
:1037F00063950622371700081307079D63F2C50C6F
:10380000C1676378F60A9307F00FB3B7C7008E0756
:10381000B356F60036970347070093060002BA979F
:103820003387F640638CF600B395E500B357FE008E
:10383000B318E60033E3B700B31EEE0013D508015A
:10384000B355A30213960801418293D70E01337733
:10385000A302AE863303B6024207D98F63FC67002A
:10386000C6979386F5FF63E7170163F567009386B4
:10387000E5FFC697B387674033F7A702C20E93DE12
:103880000E01B3D7A7024207B36ED7013306F60283
:103890003E8763FBCE00C69E1387F7FF63E61E01DB
:1038A00063F4CE001387E7FF13950601598D01439A
:1038B0005DA8B7060001C147E36CD6F4E14789BFB4
:1038C00001E68548B3D8D802C16763FAF80A9307BE
:1038D000F00F63F31701A14FB3D7F8013E97834769
:1038E000070093060002FE973387F6406390F60ABE
:1038F000B3851541054313D508011396080141828C
:1039000013D70E01B3D7A502B3F6A502B305F6028D
:10391000C206558FBE86637CB70046979386F7FF35
:10392000636717016375B7009386E7FF46970D8FAE
:10393000B377A702C20E93DE0E013357A702C20768
:10394000B3EED7013306E602BA8763FBCE00C69E0C
:103950009307F7FF63E61E0163F4CE009307E7FFCA
:10396000139506015D8D9A85630A08003337A00020
:10397000B3076040B385E7403305A0408280B707B6
:103980000001C14FE3EAF8F4E14FB9B7B398E8009A
:1039900033D5F500B31EEE00B395E500B357FE0036
:1039A00013DE080133E6B700B357C503939508014A
:1039B000C1813377C503135506013E83B386F502F3
:1039C0004207498F637CD70046971383F7FF6367ED
:1039D00017016375D7001383E7FF4697B306D740F7
:1039E00033F7C60342064182B3D6C6034207B38704
:1039F000D502B365C700368763FCF500C69513870B
:103A0000F6FF63E7150163F5F5001387E6FFC6953A
:103A100042039D8D3363E300F9BD63E1D514C167B3
:103A200063FFF6021307F00FB337D7008E0737177F
:103A3000000833D5F6001307079D2A9703470700B0
:103A40003E97930700023383E7406391E702054501
:103A5000E3EBB6F03335CE001345150029B7370731
:103A60000001C147E3E5E6FCE147D1B7B357E60003
:103A7000B3966600DD8E33D5E500B3976500335706
:103A8000EE0093DF0601B365F7003377F503331FCC
:103A9000660013960601418293D705013355F5035D
:103AA0004207D98FB308A602AA8E63FC1701B69706
:103AB000930EF5FF63E7D70063F51701930EE5FF5B
:103AC000B697B3871741B3F8F703C205C181B3D7DF
:103AD000F703C20833E7B8003306F602BE85637CFD
:103AE000C70036979385F7FF6367D7006375C700F4
:103AF0009385E7FF369713950E01C16E4D8D938622
:103B0000FEFFB375D500118FB376DF0013560501A4
:103B1000135F0F01B388D502B306D60293D708010D
:103B2000B385E503B695AE973306E60363F3D70096
:103B3000769693D6070136966360C702E319C7D617
:103B400041677D17F98FC207B3F8E800331E6E0096
:103B5000C6970143E379FEE07D1591BB0143014522
:103B600019B5AA88AE8732883685468363990620C0
:103B7000B71600089386069D63F0C50C416763760F
:103B8000E60A1307F00F3337C7000E073355E60078
:103B9000AA9683C60600130500023697B306E540D1
:103BA000630CE500B397D70033D7E8003318D6008D
:103BB000B365F7003393D80093580801B3D71503C2
:103BC00013160801418213570301B3F615033E850E
:103BD000B305F602C206558F637CB7004297138582
:103BE000F7FF636707016375B7001385E7FF429727
:103BF0000D8FB37717034203135303013357170392
:103C0000C20733E36700B306E6023A86637BD3005C
:103C100042931306F7FF636603016374D300130630
:103C2000E7FF4205518D81455DA8370500014147F9
:103C3000E36EA6F4614799BF01E605473358C70212
:103C40004167637FE8081307F00F6373070121459D
:103C50003357A800BA9603C70600130600022A9736
:103C6000B306E6406315E608B387074185459358D8
:103C7000080113160801418213570301B3F6170315
:103C8000B3D71703C206558F330EF6023E85637C09
:103C9000C70142971385F7FF636707016375C70183
:103CA0001385E7FF42973307C741B37717034203F2
:103CB0001353030133571703C20733E36700B306F7
:103CC000E6023A86637BD30042931306F7FF6366EE
:103CD00003016374D3001306E7FF4205518D828010
:103CE000370700014145E365E8F6614595B73318AC
:103CF000D800B3D5E7003393D800B397D70033D7B4
:103D0000E800935808013366F70033F7150393175B
:103D10000801C18313550601B3D515034207498F26
:103D2000B386B7022E85637CD70042971385F5FFD3
:103D3000636707016375D7001385E5FF4297B306F4
:103D4000D74033F7160342064182B3D61603420723
:103D5000B388D702B367C700368763FC1701C297E1
:103D60001387F6FF63E7070163F517011387E6FF83
:103D7000C29793150501B3871741D98DCDBD63E275
:103D8000D514416763FFE6021307F00FB335D70080
:103D90008E053717000833D5B6001307079D2A97FD
:103DA00003470700130500022E97B305E540631192
:103DB000E5020545E3E5F6F233B5C8001345150005
:103DC00039BF37070001C145E3E5E6FCE145D1B75E
:103DD0003353E600B396B6003363D30013550301A3
:103DE000B31EB60033D6E700B376A602B397B7008A
:103DF00033D7E8003368F70093170301C1831357E3
:103E000008013356A602C206558F338FC702328E81
:103E1000637CE7011A97130EF6FF6367670063750B
:103E2000E701130EE6FF1A973307E741B376A702BF
:103E30003357A702C2063386E70293170801C183EE
:103E4000D58FBA8663FCC7009A979306F7FF63E79E
:103E5000670063F5C7009306E7FF9A9713150E01F5
:103E6000416E558D9306FEFF3378D500918FB3F6E2
:103E7000DE001356050193DE0E013303D802B306AC
:103E8000D602135703013308D803369842973306F6
:103E9000D6036373D700729693560701369663E094
:103EA000C702E392C7D8C167FD177D8F42073373FE
:103EB000F300B398B8001A978145E3F2E8E27D1564
:083EC0009DB38145014521BDC0
:043EC80000000020D6
:043ECC00481500088D
:103ED00000000000000000000000000000000000E2
:103EE00000000000000000000000000000000000D2
:103EF00000000000000000000000000000000000C2
:103F000000000000000000000000000000000000B1
:103F100000000000000000000000000000000000A1
:103F20000000000000000000000000000000000091
:083F300000F36F060000002001
:040000050800015C92
:00000001FF
