:020000040800F2
:10000000B1AA010000000000000000000000000094
:1000100000000000000000000000000000000000E0
:1000200000000000000000000000000000000000D0
:1000300000000000000000000000000000000000C0
:1000400000000000000000000000000000000000B0
:1000500000000000000000000000000000000000A0
:100060000000000000000000000000000000000090
:100070000000000000000000000000000000000080
:100080000000000000000000000000000000000070
:100090000000000000000000000000000000000060
:1000A0000000000000000000E22A0008000000003C
:1000B0000000000000000000000000000000000040
:1000C0000000000000000000000000000000000030
:1000D0000000000000000000000000000000000020
:1000E0000000000000000000000000000000000010
:1000F0000000000000000000000000000000000000
:1001000000000000000000000000000000000000EF
:1001100000000000000000000000000000000000DF
:1001200000000000000000000000000000000000CF
:1001300000000000000000000000000000000000BF
:1001400000000000000000000000000000000000AF
:100150000000000000000000000000007370043088
:10016000170500001305C5FF8545F605637BB5003F
:1001700089816378B500170500001305C5002E9529
:1001800002859302002073A0027D970200009382F3
:1001900062E773907230973200009382622273900C
:1001A000C27E73E0C07E973200009382A2197390E2
:1001B0005230970100189381E16A178100181301EA
:1001C00061E4174500001305E5E4970500189385E1
:1001D00065E317060018130666E963FAC500832273
:1001E000050023A0550011059105E3EAC5FE17059A
:1001F00000181305A5E79385018D6377B5002320CB
:1002000005001105E36DB5FE73F0023217350000ED
:1002100013052533EF30802FEF300036014581453F
:10022000712D6F30402F01A073E00232828073F095
:0602300002328280000092
:10024000FA180008B2170008CE170008FE170008B9
:100250001A1800082A1800084A180008621800082E
:100260007A180008F21800080A1900086166706E12
:10027000756D204B4D475450450000004F4B00001A
:100280004552520044454D4F3A204E756D65726996
:100290006320537472696E6700000000436F756ECF
:1002A0007465723A20000000557074696D653A00FB
:1002B0006D53000053637265656E3A0044454D4FBF
:1002C0003A2050726F66696C6520656E67000000A9
:1002D0007C54696D655B735D7C435055205B255D87
:1002E0000000000054696D657C0000004C43442010
:1002F0007C00000044454D4F7C00000044454D4FBC
:100300003A20456E67204E756D20436F6C6F72000A
:10031000435055207C000000EA0A0008260B000824
:10032000800B0008EA0B0008700C0008040D0008A0
:10033000F80D00089C0F00080A1100081C130008A3
:10034000000000000000000000001010101010005D
:10035000001000006C6C2424000000000000482401
:100360007E24247E241212003824041820241C1019
:100370001000040A04300E10281000000070080855
:100380001854247800000808080800000000000045
:100390002020101010101010202004040808080855
:1003A00008080404107C1028280000000000001039
:1003B0001010FE10101000000000000000001808CF
:1003C0000C04000000007E0000000000000000009F
:1003D0000000181800002010100808040402020091
:1003E0003C4242424242423C0000101C101010109D
:1003F000107C00001C2220100804223E00001C2259
:1004000020182020221C0000302824247E20207068
:1004100000007C04043C4040423C00007008043C66
:100420004444443800007E42402020101010000058
:100430003C42423C4242423C00003C4242427C4000
:10044000201E00000000181800001818000000000E
:1004500018180000180C040000403008060830404E
:10046000000000007E007E000000000000020C1072
:1004700060100C02000038444040201000180000BA
:100480002222322A2A3202221C0018102828283858
:1004900044EE00003E44443C4444443E0000784462
:1004A00002020202443800001E2444444444241E34
:1004B00000007E44141C1404447E00007E44141C7E
:1004C0001404040E000078440202E24244380000A2
:1004D000EE44447C444444EE00007C1010101010A4
:1004E000107C0000782020202222221C0000EE44F4
:1004F00024141C2444CE00000E0404040444447E4E
:100500000000EE6C6C54544444EE0000E7464A4A46
:10051000525262670000384482828282443800006E
:100520003E4444443C04040E0000384482828282EB
:100530004438F8003E4444443C24448E00005C624D
:10054000023C4040463A0000FE9210101010103855
:100550000000EE444444444444380000E74242244E
:10056000242418180000EE44445454545428000025
:10057000EE442810102844EE0000EE442828101005
:10058000103800007C4420101008447C000038081B
:1005900008080808080808380204040808081010A9
:1005A00010000E08080808080808080E08142200A1
:1005B000000000000000000000000000000000003B
:1005C0000810000000000000000000003C427C42D7
:1005D00062DC000003023A464242463B0000000053
:1005E0005C620202423C000060405C62424262DCAB
:1005F000000000003C427E02027C000070087E0881
:100600000808087E00000000DC624242625C403C58
:100610000604344C444444EE000010001C1010103A
:10062000107C000010003C2020202020201E06040A
:10063000F4241C1424E60000181010101010107C74
:10064000000000004BB6929292B700000000364CBA
:10065000444444EE000000003C424242423C000060
:100660000000364C4444443C040E0000DC6242422C
:10067000625C40E00000760C0404043E00000000D0
:100680007C423C40423E000000043E0404044438E6
:10069000000000006644444464D800000000E742C3
:1006A0002424181800000000EE445454542800007C
:1006B000000066241818246600000000EE44442858
:1006C0002810101C00007C241008447C0000100836
:1006D000080804080808100008080808080808089E
:1006E0000808040808081008080804000000004C66
:1006F000320000000000C6BABEBEDEEEFEEEEE7CAA
:1007000021FFB1053A3AFFB2053A3AFFB3053A3A4A
:10071000053A3AFFB403FFC0620204FFC1C0FFC242
:100720000D00FFC38D6AFFC48DEEFFC50EFFE01004
:100730000E02030E0702070A122737000D0E10FFE4
:10074000E1100E03030F0602080A132636000D0EF1
:1007500010FF3A55FF3678FF29FF11FFFF00000018
:1007600000CA9A3B00E1F5058096980040420F00D0
:10077000A086010010270000E803000064000000CC
:100780000A000000010000006E6D690A0000000010
:10079000747261700A0000000A50726F6772616DB6
:1007A000206861732065786974656420776974686E
:1007B00020636F64653A0000307800000001020297
:1007C00003030303040404040404040405050505E9
:1007D00005050505050505050505050506060606C5
:1007E00006060606060606060606060606060606A9
:1007F0000606060606060606060606060707070795
:100800000707070707070707070707070707070778
:100810000707070707070707070707070707070768
:100820000707070707070707070707070707070758
:100830000707070707070707070707070808080844
:100840000808080808080808080808080808080828
:100850000808080808080808080808080808080818
:100860000808080808080808080808080808080808
:1008700008080808080808080808080808080808F8
:1008800008080808080808080808080808080808E8
:1008900008080808080808080808080808080808D8
:1008A00008080808080808080808080808080808C8
:1008B000080808080808080808080808130101CEF5
:1008C0002808232E1130232C8130232A913023280D
:1008D0002131232631312324413123225131232058
:1008E0006131232C812F232E712F232A912F23282E
:1008F000A12F2326B12FEF00D0500818EF00705021
:10090000A800EF0010508810EF00B04F2809EF103A
:10091000E03313052060EF20C07113054060EF2025
:10092000407189660D46C14537150140EF20805D55
:100930003714014089460D46C14513050480EF2058
:10094000605C91460D46C14513050480EF20805B35
:100950000546896537150140EF20806505468945C4
:1009600013050480EF20C0640546914513050480FB
:10097000EF200064EF2080122809EF1020382808AB
:10098000EF0050490818EF00F048A800EF00904829
:10099000370C000893078C3101498149930A4006BE
:1009A000014A3EC2B7040020370B002085452808C5
:1009B000EF001056B707002013844709635A050853
:1009C00037150140914513050580EF20205E1C403E
:1009D0008983858B85C783470400B71B01409145F8
:1009E000ED9B13850B802300F400EF20005D05468E
:1009F000098E914513850B80EF20805B1C40858B11
:100A000099CF83470400A800F99B2300F400EF006E
:100A100070402809EF104052A800EF003041832DAC
:100A2000040093DD1D0093FD1D00E3810DF8881087
:100A3000EF00503E83470400F59B2300F400A547D8
:100A400063E2370D124793972900BA979C43828738
:100A500093073006E3DDA7F61C40858BBDCF8347A7
:100A6000040093E74700050A2300F4002808420A1F
:100A7000EF00503A135A0A01B3775A0399E78347B4
:100A8000040093E727002300F40085679387479CC1
:100A9000B367FA028DFF896537150140EF20E051F9
:100AA0000546098E896537150140EF206050B7076C
:100AB0000020138707078347070093F7F70FE388A2
:100AC00007F02300070093F7F90F2147636CF70045
:100AD00093F9F90F85090149DDBD8347040093E7C8
:100AE000170051B701498149DDB563110902280991
:100AF000EF10601EBD452809896AEF10D0036E898A
:100B0000938ACAD48810EF0070324DB537050020A3
:100B10009385C40713058507EF20E00DAA852809F2
:100B2000EF107001C5B7631C09002809EF10A01A67
:100B300081452809EF1030006E89D14AE1B79385CD
:100B4000C40713054B07EF20000BAA8B37050020C5
:100B50009385C40713050508EF2040142A84370540
:100B600000209385C4071305C508EF202013939632
:100B70008B012A86E186A2852809EF10300959B732
:100B8000E30509FA9385C40713054B07EF20A00678
:100B9000AA8B370500209385C40713050508EF20AD
:100BA000E00F2A84370500209385C4071305C50884
:100BB000EF20C00EB70D00202AC69385C407138509
:100BC0008D07EF2040032AC49385C40713858D0742
:100BD000EF2060022247324693968B01AA87E18676
:100BE000A2852809EF10C07C31BF631D09002809C8
:100BF000EF10600E81452809EF10E0736E89930AAB
:100C0000401F09B7370500209385C40713058508E1
:100C1000EF10707E2A84814B93F7FB0F63FE8700F1
:100C20009385C40713054B07EF10F07CFC18DE9783
:100C30002380A700850BCDB79C15370500203E9477
:100C40009385C40713050508230E04D8EF2000057B
:100C50002A84370500209385C4071305C508EF20B3
:100C6000E0032A86F418A2852809EF10300859BD40
:100C7000E30F09F6370500209385C407130585089F
:100C8000EF1070772A84814B93F7FB0F63FE870088
:100C90009385C40713054B07EF10F075FC18DE971A
:100CA0002380A700850BCDB79C15370500203E9407
:100CB0009385C40713050508230E04D8EF10107E92
:100CC0002A84370500209385C4071305C508EF1053
:100CD000F07CB70B00202AC69385C40713858B07C9
:100CE000EF1070712AC49385C40713858B07EF102A
:100CF000907022473246AA87F418A2852809EF107F
:100D0000407109B5E30509EEB70600089386462849
:100D1000014681452809EF10607DB70700209387C1
:100D2000C7068043B70D00089386CD290504054604
:100D30008545280980C3EF10607BA14BA2862D4614
:100D4000854528092328712D232A012C232C012CC9
:100D5000EF1010509386CD29054689452809EF10DC
:100D6000E078A2862328712D4D46854B89452809B8
:100D7000232A712D232C012CEF10904DB70600086B
:100D80009386862A05468D452809EF10207637047C
:100D900000089306042B49468D452809EF1000757D
:100DA000A947814508182328F12C232A712D232CCB
:100DB000012CEF00F015AA8645468D452809EF1055
:100DC0003049B70600089386462B05469145280909
:100DD000EF10C0719306042B494691452809EF1086
:100DE000E0708145A800EF003018AA86454691457D
:100DF0002809EF10F04539B3E30B09DEB706000808
:100E00009386C62B014681452809EF10206EB70650
:100E100000082A849386062D114685452809EF107F
:100E2000E06C2A94B70600089386462E0146894551
:100E300042042809EF10806B41802A949306C00772
:100E40003146894542042809EF10405C41801D4726
:100E5000854D755D2A94814508182328E12C232AA5
:100E6000B12D232CB12D230EA12DEF00700AAA8BDA
:100E7000AA862D46894542042809EF10703D41801D
:100E80002A94B70600089386C62E01468D45420473
:100E90002809EF10A06541802A949306C0073146C7
:100EA0008D4542042809EF10605641802A948145FF
:100EB000A800EF00700BAA8CAA862D468D45280944
:100EC000EF10103961684204130C086A4180B39531
:100ED0008C032A9493D7FB411D47BE865E86232848
:100EE000E12C3EC4232AB12D232CB12D33858C0354
:100EF000230EA12D42044180EF201020AA864D46EA
:100F00008D452809EF10D0342A94B706000893863F
:100F1000462F0146914542042809EF10205D41808B
:100F20002A949306C0073146914542042809EF10E0
:100F3000E04D41802A9481458810EF00F002AA8C90
:100F4000AA862D4691452809EF109030B3958C0361
:100F5000A2471D475E86BE862328E12C232AB12D99
:100F6000232CB12D230EA12D420433858C03418007
:100F7000EF209018AA864D4691452809EF10502D74
:100F8000B306A4009147C2062328F12C232A012C82
:100F9000232C012CC1860146854599BDE30909C46E
:100FA000B70600089386C62B014681452809EF1035
:100FB000E053B70600089386062D1146854528099B
:100FC000EF10C052B70600089386462E01468945A9
:100FD0002809EF10A0519306C0073146894528091A
:100FE000EF10C042854D9D4C755D81450818232842
:100FF000912D232AB12D232CB12D230EA12DEF00ED
:101000002071AA8BAA862D4689452809EF10502405
:10101000B70600089386C62E01468D452809EF10B5
:10102000E04C9306C00731468D452809EF10003E7D
:101030008145A800EF0040732A8CAA862D468D4575
:1010400028096164EF10D0201304046AB3158C02E0
:1010500093D7FB41BE865E863EC42328912D232A6A
:10106000B12D232CB12D230EA12D33058C02EF20A1
:10107000B008AA864D468D452809EF10701DB706A9
:1010800000089386462F014691452809EF10004637
:101090009306C007314691452809EF102037814556
:1010A0008810EF00606C2A8CAA862D46914528098D
:1010B000EF10101AB3158C02A2475E862328912DDB
:1010C000BE86232AB12D232CB12D230EA12D33054D
:1010D0008C02EF207002AA864D4691452809EF1038
:1010E0003017835601229147014685452809232858
:1010F000F12C232A012C232C012CEF1070153546DE
:1011000089452809EF10700EF5BAB70B00209385BA
:10111000C40713858B07EF10102E9385C407138522
:101120008B07EF10502DE30409ACB7060008938637
:10113000C62F014681452809EF10403BB70600083D
:101140002A849386062D114685452809EF10003A1A
:101150002A94B70600089386462E01468945420424
:101160002809EF10A03841802A949306C007314621
:10117000894542042809EF1060294180054D1D4C26
:10118000F55C2A94814508182328812D232AA12D56
:10119000232CA12D230E912DEF008057AA8DAA8616
:1011A0002D46894542042809EF10900A41802A946F
:1011B000B70600089386C62E01468D4542042809CD
:1011C000EF10C03241802A949306C00731468D4506
:1011D00042042809EF10802341802A948145A80009
:1011E000EF008058AA862AC42D468D452809EF10A5
:1011F0003006224E4204E1689388086A4180B315A4
:101200001E032A9413D3FD419A866E861AC623289C
:10121000812D232AA12D232CA12D230E912D3305C1
:101220001E0342044180EF20206DAA864D468D4565
:101230002809EF10F0012A94B70600089386462F7C
:101240000146914542042809EF10402A41802A9422
:101250009306C0073146914542042809EF10001B50
:1012600041802A94814588100123AA862AC42D46EC
:1012700091452809EF10C07D224EE1679388076AE7
:10128000B3151E0332436E862328812D9A86232AA6
:10129000A12D232CA12D230E912D42044180330535
:1012A0001E03EF206065AA864D4691452809EF1080
:1012B000207A2A949385C40713858B07EF10B01307
:1012C000AA8D9385C40713858B07EF10D0123707BB
:1012D000002013078706834707004204BD468507A1
:1012E00093F7F70F41802A8663EFF6009316040107
:1012F000C1862300F70091472328F12C232A012CD3
:10130000232C012C49B9EE85280923000700EF00A2
:10131000705E2A9493160401C186F1BFE309098C1B
:10132000294437070020B70D0020B70B0020130514
:1013300007089385C407EF1070162AC69385C40763
:101340001385CD08EF1090152AC49385C407138523
:101350008B07EF10500AB2472246AA86BE8528099D
:101360007D14EF10606F1374F40F3707002061F0E5
:10137000B706000893860631014681452809EF101B
:10138000E0169306C007314681452809EF10000892
:1013900081450818B52EAA8B8145A8006164E9260D
:1013A0001304046AB315850293D7FB4175571D4892
:1013B000BE86854D5E862328012D230EE12C3AC67C
:1013C000330585023EC4232AB12D232CB12DEF20F5
:1013D000A052AA862D4681452809EF1060678145F5
:1013E00088105926B3158502A24732471D485E86EC
:1013F000BE862328012D232AB12D232CB12D230EA7
:10140000E12C33058502EF20204FAA864D46814509
:10141000C5B2B7070020054723AEE706E1773707D7
:10142000002093C707E2231AF706B7070020938727
:1014300007081D47D8C323A00700B70700209387DC
:10144000C7084D47D8C323A007008567370700208A
:10145000938707F0231CF7068967370700209387D7
:1014600007902314F7088280B737014088471D8111
:101470001345150005898280371501408545130500
:1014800005C06F10B032371501408545130505C002
:101490006F109031B737014098439316470163D0DE
:1014A00006029843FD769386F67F1377F7FB98C381
:1014B0009843758F98C398431367070498C3828035
:1014C000B73701409443056713070780F98E81EE13
:1014D000944393F6F6FB94C39443558F98C3984373
:1014E0001367070498C38280411122C426C22E8448
:1014F000AA8489453705024006C6EF10F00013069E
:101500000040894537050240EF1090061306001091
:10151000894537050240EF10700826868945370552
:101520000240EF10B000894537050240EF109009E6
:101530002286894537050240EF1050012244B2400F
:10154000924489453705024041016F1080798567D3
:101550004111938747A62316F10085472A87230761
:10156000F100814605480145FD1513030003094EAE
:101570008D487C00B69783C70700636FF702335826
:10158000F7026347B5002300060001454101828050
:10159000B30EA600130808033377F702930715006C
:1015A00023800E0113F5F70F01488506E39316FD1E
:1015B0002A9623000600D9BF63040800E397C6FFFC
:1015C000E353B5FCB307A60023806700930715001B
:1015D00013F5F70FD9BF914763E6A70075151335CB
:1015E0001500828001151335F5058280914763E669
:1015F000A700711513351500828001151335F50507
:1016000082807D57814718C55CC518C95CC9230015
:1016100005008280411122C406C62A84EF10703C66
:10162000B24008C44CC42244410182808347050073
:10163000011122CC4AC852C406CE26CA4EC603297E
:101640008500032AC5002A84A9E385472300F50005
:1016500081448149EF10F03808C42695B3349500D1
:10166000AE99B3072541CE943335F500B384444198
:10167000898C44C8F2404CC41CC86244D2444249DC
:10168000B249224A01450561828004498329450106
:10169000D1B711C58547630EF50001458280B707B4
:1016A000002003A507069307803E3355F502098104
:1016B0008280B707002003A50706B7470F0093876E
:1016C0000724E5B7411126C206C622C4AE84D1372D
:1016D00015CD2A8433049402EF10B0309307140020
:1016E00033B48700B384A700B3B7F4002E943E94BC
:1016F000EF10302FE3EE85FE6314B400E36A95FE2D
:101700000145B24022449244410182800545D5BF43
:10171000011106CE22CC26CA4AC84EC652C456C2B1
:10172000AA8483298500832AC5002E8AEF10702B96
:101730002A8488C8CCC82380040052852E89913F12
:101740002A86330534413334A400B3055941818DD1
:101750008146EF200055F2406244D2444249B249EA
:10176000224A924A0561828083470500411122C4C2
:1017700006C62A847D5589CB2E85213F2A864C4872
:1017800008488146EF20E051B24022444101828066
:101790001C4D411122C406C626C229472A84636013
:1017A000F71A370700088A0713070724BA979C43DC
:1017B00082875D3963030514F1397D399305A002F1
:1017C00037350140EF10F00F1C4C85073DA06939FB
:1017D000630505124D39ED31835724001387170037
:1017E000231AE40003576400BA97231BF4008945C9
:1017F00013054401D5391C4C89071CCCFDA8B7370B
:1018000001409C47898B638A070E835525008357C7
:101810006500BE95C205C18165B7B931630F050C7E
:10182000953999399305B00261BF3D396307050CBD
:1018300099397931835704001387A701231AE400EB
:1018400003574400BA97E5074DB7B73701409C47A7
:10185000898BC5C78355050083574500BE95E505AF
:1018600055BF193159C93D3101399305C00237358A
:101870000140EF101005A14749B7FD363DCD21319C
:1018800081318347C400044481EB084893950401E7
:10189000C1819939A54795B7894537050240EF10B1
:1018A000A04613060040894537050240EF10404C22
:1018B00013060010894537050240EF10204E13062D
:1018C0000401894537050240EF1040468945370538
:1018D0000240EF108051139604014182894537057B
:1018E0000240EF10A046894537050240EF10603FE7
:1018F00055B79D3E19C1232C0400084CB240224428
:1019000092443335A00041018280B93E7DD5A53E89
:10191000453E8347C4009DEF1C4C139717001C489D
:10192000BA9783D5C7FE37350140EF1080791C4C3C
:101930001844938667FF7D17E3FEE6F479B53737E1
:1019400001401847098B55DB0347C50001E71849DB
:101950008607F9B783550401F9B7411126C2B3844C
:10196000E60222C406C62313E5002318F500054746
:1019700085472A842311C5002310B5002312D50002
:1019800004C52306E5001CCD3325900001C5228542
:101990000135EDBFB2402244268592444101828048
:1019A00081471307000A930600050146814575B774
:1019B00041111305206006C622C4EF10806713058D
:1019C0003060EF10006713050060EF108066371479
:1019D0000140130504C085460D46C145EF108052F5
:1019E000130504C089460D46C145EF10A0511305EB
:1019F00004C091460D46C145EF10C0501305048048
:101A0000930600020D46E145EF10C04F1305048018
:101A1000930600040D46E145EF10C04E1305048007
:101A2000930600080D46E145EF10C04DB240224438
:101A300001454101828001113715014026CA9145B7
:101A4000130505C0B704000806CE4AC84EC622CC0E
:101A500093840470EF10805537390140EFF09FA355
:101A60009309F00F8327890093F70708E5FFEFF04C
:101A7000BFA083C504003735014013841400EF1064
:101A800040648327890093F70708E5FFEFF0BF9FC5
:101A900083450400638C350183278900898BEDDF42
:101AA000373501400504EF10C061DDB783471400EE
:101AB00093041400E39837FBF2406244D244424955
:101AC000B249014505618280411106C622C426C281
:101AD0004AC02A89F13D2A84B7140140EFF0BF9A29
:101AE000138504C08945EF10604C138504C09145EF
:101AF000EF10804B85450145F136138504C08945BB
:101B0000EF10804A85450145753E1305C060EF1012
:101B1000405237350140EF104055B734014093072C
:101B200040319CC08947DCC037350140EF10C058B8
:101B300013050050EF10E04F894537050240EF10C4
:101B400020168D6737070240C1071CDBB10404DF94
:101B50004A85D535B240418D2244924402491375DD
:101B6000F50F4101828079C2AA862E85F1C19307C3
:101B7000F00F63E6D70013F5F60F6FF05F9DB72700
:101B8000E8034111938707713EC2B7070A009387A4
:101B900047063EC4854732872316F100930841006B
:101BA000154605488147FD15130E0003954E114F4C
:101BB00003D5080063EAA60433D8A6021373F80F0E
:101BC00063C8B7002300070081473E85410182803A
:101BD0001378F80F33050503B30FF700130303035E
:101BE000850723806F0093F7F70F01483385A640E0
:101BF00093160501C1827D161376F60F89084DFAFA
:101C00003E9723000700D1B7630808003385CE4014
:101C10001375F50FE311E5FFE3D6B7FA3305F700C7
:101C200085072300C50193F7F70FF1B701458280BF
:101C30008280D147232E0500232CF522232E052256
:101C4000232005242302052401458280232C05003E
:101C5000CDB705660147D145130636F02148B308D4
:101C6000B7028146B387D800938707028607AA97F1
:101C70002394C7008506E397B6FE0507E31107FF27
:101C80009307000A2314F51801458280B707150051
:101C90001CD5B7075505938707545CD5B7B715A86A
:101CA000938707801CD9B7B755AD938707AA5CD92E
:101CB000B757BF529387A72A1CDDB757FF579387A3
:101CC000A77E5CDDB707C0FA9387A7AA3CC1A957D6
:101CD0007CC101458280411106C622C426C2BD478F
:101CE0005CD1232005022A845537AA8422854D39E8
:101CF000B24022442685924441018280411106C6A9
:101D000022C426C2AA84C933BD47DCD02A8423A0BA
:101D1000040226853D3F498C26858D3F1374F40FC0
:101D2000498C23A604222388042223AA0422268580
:101D300085391374F40FB240228522449244410144
:101D4000828041112316B10032472314C100A247FB
:101D500005831377F7078583930607FE114693F7EC
:101D6000F70793F6F60F636EE604636CF604834799
:101D7000C1000347810001453D8F1377E70F0DE751
:101D800093F7E70F1387E7FF1377C70F054509CFD1
:101D90001947639DE7000345D100834791003D8DBE
:101DA0001375050F13351500410182802147014548
:101DB000E39CE7FE0345D100834791003D8D3D89BB
:101DC000D5B71307E0050145E360D7FE811793F708
:101DD000F70FE36BF7FC8347C10003478100B98F1E
:101DE00093F7E70FF1F30345D100834791001D8D71
:101DF00055BF4D476364C7101D47AA877D55636C67
:101E0000B71251473387E502411111483297130742
:101E1000070206073E978356870036871355C7008B
:101E200021833D8B410541072316D100060585829C
:101E300006073E953E9793F6F607835885000355AF
:101E400087006368D8020347C10089461377E70F0C
:101E50006308D70A630C070D9946630CD70CA1469B
:101E60006301D70A014501C70D47D8CF7D55410110
:101E70008280138706FE1378F70F9306E005E3E5EB
:101E800006FF6380A808A946370300083307D70276
:101E9000130303348146A143A9423308D7001A989B
:101EA000834E0800139846003E98014E13FF1E0013
:101EB000C68F63030F00AA8F2315F819050E93DE52
:101EC0001E000908E3147EFE8506E39856FCB385E0
:101ED000D502370708002907D8C3130700050E06E7
:101EE00098C71387A7182391C7002386070023905C
:101EF000B70098CB054798CF054595BF7D558280A3
:101F000001452947B385E502370708002907D8C3EB
:101F1000130700050E0698C705472391C7002386BF
:101F2000E7002390B7002398A700E9B741657D1526
:101F3000C9BF4685F9B78280397126DA4AD84ED6AC
:101F40005AD08354C5220359E52283490523032B24
:101F5000452322DC52D456D25ECE62CC06DE2A84E1
:101F6000D14B0D4C494A994A63170B0CB3077903BF
:101F700003578418A697938707028607A29783D6EC
:101F800087002316D10021C30346C100058A2DCE48
:101F9000F99A2394D7007D172314E4182686CA855E
:101FA0002285813D854711C96344A004232604226C
:101FB00023080422232A04228147636F9A0285049E
:101FC000C204C180D5F323169422231724232308A7
:101FD0003423232A6423F2506254D2544259B25912
:101FE000225A925A025BF24B624C01452161828077
:101FF000054B8149DA87D1B763ED2A030509420908
:102000001359090181447DBF63633C0563699A00EC
:102010008504C204C180850993F9F90F81BF63E883
:102020002A0105094209135909018144EDB7014903
:10203000EDBF0149C1BF8547E317FBF82285EFF0EB
:102040002FF509C5850993F9F90FB5BF014B8149F2
:102050009DBF797106D622D426D24AD02316D1004C
:102060009D4763E7B7084D473289FD576360C70650
:10207000D147B387F5022E84AA84B29793870702CB
:102080008607AA9783D787003246231EF100F245C0
:102090004D39814705ED8347C101858B89EB83D796
:1020A00084181307F009637AF7028547DCCCD14521
:1020B0003304B4028357C10093E717004A94130412
:1020C0000402060426942314F4008547B2502254D7
:1020D000925402593E854561828089EB2397842280
:1020E0002396242385472394F418D1B78507E5BFA9
:1020F000FD57E9BF1D7186CEA2CCA6CACAC8CEC6FE
:10210000D2C4D6C2DAC05EDE62DC66DA6AD86ED6C7
:10211000BD4763C0B72263CEC720832B0502032BC4
:1021200045022A846389750B631F66139397C50064
:1021300085640CD1814C014A930A800251493EC00A
:10214000FD1433875C03139C0C01814D135C0C015F
:10215000338B2C03B309E40003DD8904B307BB010F
:10216000938707028607A297231EA10103D5870044
:102170009357C5006399770305811375F507EFF051
:102180008FC515C18247337D9D0013960D01336DB8
:10219000FD00231EA101F2464182E2852285553DC4
:1021A000634905182A9A850D8909E3972DFB850C4B
:1021B000A147E398FCF8F6406644D6444649B64940
:1021C000964A064BF25B625CD25C425DB25D528520
:1021D000264A25618280630866099374F600FD79BA
:1021E00050D1814C014AD14AA2049389F90F1309B5
:1021F000800233892C03139C0C01814D135C0C016C
:10220000B38B5C032299035D8904B387BB01938779
:1022100007028607A297231EA10103D587009357C3
:102220008500BD8B6398670305811375F507EFF093
:10223000EFBB0DC1337D3D01336D9D00231EA10118
:10224000F24613960D014182E285228519356342DB
:10225000050E2A9A850D0909E3975DFB850CA147B8
:10226000E397FCF889BF93F7F5003EC29377F60039
:102270000CD050D081448149014A514C3EC493074F
:102280008002B38AF402939D0401814C93DD0D0119
:10229000B3878403A29A3EC083D78A04231EF10029
:1022A0008247E697938707028607A29783D787001E
:1022B00093D6170013D9870013DDC70093F6F607EE
:1022C0001379F900631A7D01368536C6EFF0AFB099
:1022D000B24619C1124DAA89631669013685EFF01D
:1022E000EFB001ED639C0900850C890AE3968CFB35
:1022F0008504A147E395F4F87DBD2249220993178F
:10230000CD00136919003369F9008357C101139691
:102310000C01418293F7E70F3369F900231E210175
:10232000F246EE8522853533634505002A9A8549B4
:1023300065BF7D5A49B5797122D406D626D24AD0D6
:102340004ECE52CC56CA5AC8BD477D5463C5B70459
:1023500093F7F500A20793E77700B205DD8DAA8910
:102360002316B10081440144D14A214A139B040140
:102370000149135B0B01B246131609014182DA854C
:102380004E85C1396344050205092A94E31559FFB6
:102390008504E39D44FDB250228522549254025993
:1023A000F249624AD24A424B456182802A84E5B7AB
:1023B0001D48636AB804CD487D5863E7C804BD482A
:1023C00063C4E80463C2F804938806FE93F8F80F28
:1023D0001303E005636A130393F6F6078606BD8BC5
:1023E000A20793E61600DD8E32070111558F2316E2
:1023F000E100B2464206C2054182C18106CE913952
:10240000F240056182807D58428582805C5118517E
:1024100045B7397122DC4AD806DE368926DA4ED62F
:1024200052D456D25AD05ECE62CC9D467D5463E2E1
:10243000B60ACD46B2847D5463EDC608BD4663CA74
:10244000E60863C8F60863060908BD8BA2073207D1
:1024500093E71700D98F0357C100139A0501AA8982
:102460001377E70FD98F2316F100137BF60F814AFC
:102470000144D14B130CE005135A0A01B30759016B
:1024800083870700B9C733075B011377F70F630230
:10249000770513F7F70701171377F70F6368EC0257
:1024A0000357C10093F7F7078607137717F0D98F03
:1024B0002316F10033865401B24642064182D2858A
:1024C0004E85EFF01FB9634505002A94850A7DB754
:1024D0002A84F25022856254D2544259B259225A67
:1024E000925A025BF24B624C216182805C5118511E
:1024F0000DB75971A2D486D63E84A6D2CAD0CECE0C
:10250000D2CCD6CADAC8DEC6E2C4E6C2BD4763D1C1
:10251000E702FD5AB650265496540659F649664AC3
:10252000464BB64B264C964C5685D64A6561828002
:10253000E3C187FE9D47AE84E3EDB7FC832B852383
:102540008329C523B28A832505242A893A8B13F669
:10255000FB0F93F7FA0F638A090A138C17003306EF
:10256000CC40137CF60F4D47E36587FB13FAF70F5A
:102570006373F7004D4A6393051663DF06089307FC
:10258000D0022306F100B30CD0409307E00F63EBB9
:1025900097091306D100AD4513F5FC0FEFE03FFBA3
:1025A0002DD90505937CF50FE3850CF68357810142
:1025B0003D88220413641400320B336B640193F7DB
:1025C000E70F336BFB00231C610163D49B1D137B5E
:1025D0001BF0136B6B04420CC204231C6101135CDF
:1025E0000C01814AC1809377FC0FE365FAF2E24661
:1025F0006286A6854A85050C420CEFF09FA5135C08
:102600000C01634E0532AA9AF9BF138CF7FF62964C
:102610003E8C9377F60F81BF9307B0022306F1003B
:10262000B68CA5B7C1671387E7FF636B9701139556
:102630000C011306D100AD454181EFF0CFD28DB72B
:10264000FD176397FC001306D100AD456685F5B70D
:10265000B705000813068002938505762808EF0069
:10266000B0782C08A9470546014525489308000382
:102670002943944163E3DC0433D7DC021376F70F7C
:10268000E369A8E81377F70F3307D702130E0104A5
:102690002A9E130606030505A306CEFC1375F50F47
:1026A0000146B38CEC40FD1793F7F70F9105F1F35A
:1026B0009C00AA97A38607FCE5B519C63307F3402B
:1026C0001377F70FE31107FFE365A8E498002A9753
:1026D0000505A30617FD1375F50FF1B7030549248A
:1026E00063DE06029307D0022306F100B306D04052
:1026F0006166896501481306F6699385F57093084C
:10270000703E294711431378F80F637FD602B3D682
:10271000E6020508620813588841F5B79307B0022E
:102720002306F100F1F693070003A306F1008D677D
:102730009387E7022317F100B73720009387070339
:102740003EC89D4C850C9DB563F0D502B3D7E6021B
:10275000B3F6E6026366D30093960701C18655BFC0
:1027600093861700C206DDBF63EDD81CB386E60270
:102770007D184DB78D473367F8020D0805076207CE
:102780003348F8026187F1AAB28719AC2300EE0141
:102790003DAC6397090463C60A00E69AD14763DB40
:1027A0005709137B1BF0136B6B04420CC204231CF0
:1027B0006101135C0C010144C1809377FC0F636CD1
:1027C000FA16E2466286A6854A85050CEFF07F88F8
:1027D000420CAA8A135C0C01E34E05D22A94F1BF85
:1027E00085476398F90CB3879A417D5763C5E70025
:1027F000CD4763D0570D137B1BF0136B6B04420C5A
:10280000C204231C6101135C0C010144C180937755
:10281000FC0F6362FA12E2466286A6854A85050CC1
:10282000EFF03F83420CAA8A135C0C01E34405CE0F
:102830002A94F1BFC204014BC1807C00CE9783C7AC
:10284000070013960901418293F7F70713971700C2
:1028500083578101A6854A8593F717F0D98F231CEA
:10286000F100E246EFF0EFFEAA8AE34505CA8509CA
:1028700013F4F90F2A9BE36294FD8357810142040C
:10288000418093F717F093E70704231CF100937737
:10289000F40F6364FA0AE2462286A6854A85050497
:1028A000EFF02FFB4204AA8A4180E34505C62A9B2C
:1028B000F9BF137B1BF0136B0B04C204231C6101D3
:1028C0000144C180330A9A4193190C0193D909013B
:1028D00063408A03E2464E86A6854A85EFF06FF78D
:1028E000AA8AE34905C2050C2A94137CFC0FE9BFB0
:1028F000A28A01447C00A29783C70700338689001F
:10290000420693F7F7071397170083578101418217
:10291000A68593F717F0D98F231CF100E2464A856C
:10292000EFF02FF3634D050005049377F40FAA9A97
:10293000E3E297FDC5B6A28AF1BEDA8AE1BEAA8AB1
:10294000D1BE2A98620813588841E35508E213471C
:10295000F8FF0D46B367C70205080D473348C802A4
:102960001D8F1908B70700089387C7261378F80F3B
:102970003E9883470800900028082309F100B70714
:1029800064009387873E3ECCC167A9073ECE930E75
:1029900001028147130F0003B308E6001303E002AE
:1029A000035805001306D100330EF60013861700F6
:1029B0001376F60FE3EC06DDB3D50603938F05031C
:1029C00093F5F50FB38505032300FE018D8E631784
:1029D000C7008907A38668FC13F6F70F0905E3957E
:1029E000AEDAA3090100994CB1BB5C4D185181EBE3
:1029F000B706000889479386C6276FF09FA1B706E0
:102A00000008011191479386062806CE22CC26CADB
:102A10004AC84EC62A842E89B289EFF09F9F18506B
:102A2000544C8947AA84232CF422232E04222320E9
:102A3000042413863900CA8522859147EFF07FABC5
:102A4000F24062444249B2492695D24405618280EF
:102A50005C5118516FF0FFA9BD4763CED7021D47E7
:102A6000FD57636BB7024D476368C70293F7F600E3
:102A7000A20793E77700B2060111DD8E2316D1007D
:102A8000B2464206C2054182C18106CEEFF06FDC3C
:102A9000F24005618280FD573E8582804111130519
:102AA000206006C6792337150140930600100D46B5
:102AB000914513050580B9210D45B12E0546854583
:102AC0001305A002A12EA1450145ED290946814526
:102AD00013050010B526130500100521B240410171
:102AE00005AE41111305001006C6D52E0DC1130504
:102AF00000102121371501409305001013050580B2
:102B00006D2911E5B707002005472388E706B24085
:102B1000410182807D671307D731B377E502916663
:102B20009386761A3355E5020567130747B1B387D5
:102B3000D7023305E50263E5A7003385A74082800D
:102B4000370700801347F7FFBA97C5BF79714AD09E
:102B50004ECE06D622D426D252CC56CA5AC8834765
:102B60000600834416002E89B2899D8CB707008029
:102B700013C7C7FF6371970493C7E7FFB3DAF40283
:102B80002A8B3E8493FAFA0F7000CA855A85230671
:102B90000100A30651015D3F330A850203250900A8
:102BA000953F9307F5FF2320A900D297E3EEF4FCAD
:102BB000E3EC47FD15A0850493C7D7FF33D49702F4
:102BC000B384840203250900B1372320A9007D15B1
:102BD000E37A95FEB357850203C50900B25022542B
:102BE0003E9592540259F249624AD24A424B1375B9
:102BF000F50F456182802A8691BF79711C4222D4EB
:102C000040423707008026D24ECE1D8C06D64AD0D1
:102C100052CC56CA5AC89346C7FFAE84B28993476E
:102C2000D7FF63EC8602050433D9870233042403FB
:102C30008840CD3588C07D15E37C85FEB3572503DC
:102C400003A50900B250225492540259F249624A33
:102C5000D24A424B3E9545618280630BF402134792
:102C6000E7FF335BE402AA8A3A893000A6855685DD
:102C700002C45AC65937330A25038840613D930779
:102C8000F5FF88C0D297E362F4FEE3E047FF4DBF53
:102C90008841493588C09307F5FF5DB72A86B1BFE3
:102CA000B7070240938707406316F500914763F327
:102CB000B70001A0D147B387F5028A05AA979847C4
:102CC000799B98C723A4070023A6070023A8070021
:102CD00023AA07005841BD47B395B700D98D4CC111
:102CE0008280B7070240938707406316F50091473B
:102CF00063F3B70001A0D147B385F5022E951C45BB
:102D000093E717001CC58280B707024093870740EE
:102D10006316F500914763F3B70001A0D147B3856F
:102D2000F5022E951C45F99B1CC58280B707024011
:102D3000938707406316F500914763F3B70001A03E
:102D4000D147B385F5022E9550C98280B70702405E
:102D5000938707406316F500914763F3B70001A01E
:102D6000D147B385F502420641822E9550C5828037
:102D7000B7070240938707406316F500914763F356
:102D8000B70001A0D147B385F5027D771307F73F60
:102D90002E951C45F98F5D8E10C58280B7070240C5
:102DA000938707406316F500914763F3B70001A0CE
:102DB000D147B385F5022E951C4593F7F7CF5D8E6D
:102DC00010C58280B7070240938707406316F5005D
:102DD000914763F3B70001A0D147B385F5022E9563
:102DE0001C4593E707081CC58280B70702409387FC
:102DF00007406316F500914763F3B70001A0D14780
:102E0000B385F5022E951C4593F7F7F71CC5828014
:102E1000F367043082801375F50F09A9011106CEFE
:102E200022CC26CA2A84B2842EC6C52EB24522855B
:102E30000D2122856244F240A685D2440561A5A1F8
:102E4000B707014083A607401347F5FFF98E23A07B
:102E5000D74083A64740F98E23A2D74083A6874058
:102E6000F98E23A4D74083A6C740F98E23A6D74066
:102E700085C98546638CD5028547630FF60289476D
:102E80006309F60431E6B707014083A68740558DF4
:102E900023A4A74083A6C740758F23A6E74082805E
:102EA00083A60740C98E23A0D740F9B783A6474021
:102EB000C98E23A2D740C9B7B707014083A6874070
:102EC000758F23A4E74003A7C740598D23A6A740C9
:102ED0008280B707014003A78740498FDDB7B70657
:102EE000014083A746412A877D8D83A7064009C5F7
:102EF00033F5E7003335A0008280B707014023AAED
:102F0000A740828093F7050193F8F50099C3B3E8D1
:102F1000C8008147054EBD4E130F8002930F8004F9
:102F200021433316FE00758E1DC21397270083229E
:102F300005003398EE001348F8FF337858003397B4
:102F4000E800336707016399E50550C918C1850793
:102F5000E39967FC054EBD4E130F8002930F80046A
:102F600041433316FE00758E05C6139727000117DF
:102F7000832245003398EE001348F8FF3378580059
:102F80003397E80033670701639CE50150C958C1D6
:102F90008507E39867FC8280E39AF5FB10C97DB74B
:102FA000E397F5FF10C9E5B70CC982804CC9828050
:102FB00019C20CC982804CC9828008456D8D333599
:102FC000A000828013F735000A07BD47B397E700DA
:102FD0003315E5000D4793C7F7FF636BB70037075D
:102FE00001401447F58F1CC71C475D8D08C78280C0
:102FF0001D47636BB700370701405447F58F5CC727
:103000005C475D8D48C782802D47636BB7003707EB
:103010000140144BF58F1CCB1C4B5D8D08CB82807F
:1030200037070140544BF58F5CCB5C4B5D8D48CB33
:10303000828013576500B71702403E9714438547B7
:103040003395A700558D08C38280B71702401357E8
:1030500065003E9714438547B397A70093C7F7FFD2
:10306000F58F1CC38280F1B7CDB74111B74700403F
:1030700006C6138707C06308E50237370140630CB3
:10308000E500938707806316F5021305E040E13FF2
:103090001305E04031A01305C030F1371305C030EF
:1030A000B2404101D1B71305F040753F1305F04020
:1030B000C5BFB240410182801C4193E707041CC197
:1030C00082804CC58280B71702409843B706FFE064
:1030D000B1061367170098C3D843758FD8C39843B8
:1030E000B706F7FEFD16758F98C39843B706FCFF29
:1030F000FD16758F98C3D843B70601DFFD16758F8F
:10310000D8C323A607029843B706F7EAFD16758FC2
:1031100098C33707FF0098C794434167D98E94C37B
:103120009307F7FF3717024014431396E6006344F2
:103130000600FD17F5FBB717024098439316E7000A
:1031400063C3060001A0D843B706C4DFFD16D8C389
:10315000D843D8C3D84313670740D8C3D843758F23
:10316000D8C3D843B7062920558FD8C3D857BD76C2
:10317000758FD8D7D857C166938616F1558FD8D793
:103180009843B7060004558F98C3B7170240984379
:1031900093164700E3DD06FE9843B7060010558FEF
:1031A00098C3B7170240984393162700E3DD06FE45
:1031B0009843B7060001558F98C3B717024098434C
:1031C00093166700E3DD06FED843719BD8C3D8434E
:1031D00013672700D8C3371702405C43A18BF5DF84
:1031E0008280B70700D1D8438843CC43E39DE5FEF6
:1031F0008280B70700D223800700A38507009317BA
:103200004500371500D23E95B71700D263E3A700FB
:10321000828023A00700C107D5BFB71700D285075A
:103220000A053E9585472300F5008280370700D2C6
:10323000834707000605798993F7170E5D8D2300F4
:10324000A7008280B70700D203C5070005813D892A
:103250008280411122C426C206C62A84AE84DD378C
:103260009147114763E3A7002A87B71600D21315C9
:1032700024008D063695834705001376F70FA14588
:10328000B397E70093F7F70F918DB394B400B3D7DA
:10329000E740C58F93F7F70F2300F500B2402244B3
:1032A000924441018280411122C426C206C6AA84EA
:1032B0002E84493F8D4763EDA702371700D28A0459
:1032C0000D072697834707002A86A146918E120490
:1032D000B3D7D7401375F40FB397D700C98F93F7BF
:1032E000F70F2300F700B24022449244410182804C
:1032F0000145D5BFF327503093F707FC93E737001C
:103300007390573082800000000000000000000031
:1033100000000000000000000000000000000000AD
:10332000000000000000000000000000000000009D
:10333000000000000000000000000000000000008D
:103340005D7106C012C216C41AC61EC82ACA2ECC87
:1033500032CE36D03AD23ED442D646D872DA76DC75
:103360007ADEFEC0F322103496C0F322003096C2FB
:10337000F322407C96C4732520348A85E12086425E
:1033800073901234964273900230A6427390427C3E
:1033900082401242A2423243C2435245E245724643
:1033A00082561257A2573258C258525EE25E725F7E
:1033B000864F616173002030000000005D7106C01F
:1033C00012C216C41AC61EC82ACA2ECC32CE36D095
:1033D0003AD23ED442D646D872DA76DC7ADEFEC0E5
:1033E00073D0E87E7350F97E73D0B97EF390D07EAF
:1033F00073700430B6427390427CA64273901234CC
:1034000096427390223482401242A2423243C24317
:103410005245E245724682561257A2573258C25858
:10342000525EE25E725F864F616173002030B705C5
:1034300000084111154693858578054506C6BD2CC3
:1034400005451D204111856722C406C6FD172A8443
:103450006313F500E93FB705000815469385057924
:103460000545A92C228509207971B705000822D4C9
:103470007D462A84938585790A8506D6B5227946C4
:103480008A850945252CA28509450928B705000824
:103490000546938545790945152401A079714AD0DF
:1034A0002E89B705000809469385857B22D426D24C
:1034B0004ECE52CC56CA06D6AA84714401243D4A47
:1034C000A54AF159B3178A00B3F72701B3D787008C
:1034D00093F7F70F63E9FA0293870703E207E1879F
:1034E00005469305F10026857114A307F100F92222
:1034F000E31A34FDB250225492540259F249624AFE
:10350000D24A4561828093877703C9BFAA858146E5
:1035100001460145DDA24111B737000822C406C6A5
:10352000938727782A8499C38145A12CB74700083F
:1035300003A587001C5591C3829722853537411119
:10354000B747000822C43744000813870701130453
:103550000401198C26C206C609849384070111E46C
:103560002244B2409244410109A67D1493172400DD
:10357000A6979C438297E5B74111B747000822C43C
:10358000374400081387C7001304C400198C26C2EF
:103590004AC006C6098481441389C700639884021F
:1035A0007D24B7470008374400081387C700130479
:1035B0000401198C098481441389C700639F840026
:1035C000B2402244924402494101828093972400F0
:1035D000CA979C4385048297D1B793972400CA97D2
:1035E0009C4385048297D9BFB3C7A5008D8BB306D2
:1035F000C50081E78D4763EEC700AA876378D50AC7
:1036000003C7050085078505A38FE7FEE3EAD7FE1C
:10361000828013773500AA8711CB03C70500850781
:103620008505A38FE7FE13F73700FDB713F7C6FF35
:10363000130607FE63FBC70483A3050083A24500AE
:1036400083AF850003AFC50083AE050103AE45011E
:1036500003A3850183A8C50123A0770023A25700F7
:1036600003A8050223A4F70123A6E70123A8D70195
:1036700023AAC70123AC670023AE17019385450237
:103680009387470223AE07FF75B72E883E86636097
:10369000E6021388D7FF0146636607010D071D8FF9
:1036A0001376C7FFB297B295E3ECD7F482808328F4
:1036B000080011061108232E16FFD1BFB7070020FE
:1036C000B2862E86AA8503A5470609A0411122C409
:1036D00026C22A842E85B285368606C623A4018C8E
:1036E000752AFD576316F50083A7818C91C31CC012
:1036F000B24022449244410182803708002083274F
:103700008809AA888DE7370700201305C709232CED
:10371000A80837080000130308009307C7096308C7
:103720000300832708002324F5089307C709D8431B
:103730007D487D556346E804638D080203A8870829
:103740006300080413152700429510C103230810D5
:1037500005463316E6003363C30023206810232098
:10376000D50889466397D80083264810558E2322B2
:10377000C810930617000A07D4C3BA978CC701452F
:103780008280797152CC56CA5AC862C406D622D4F5
:1037900026D24AD04ECE5EC666C2AA8A2E8A370B81
:1037A0000020054C03248B09930B8B0911C844405E
:1037B000832984081389F4FF8A04A294635F0900B3
:1037C000B250225492540259F249624AD24A424BB0
:1037D000B24B224C924C45618280630E0A00639585
:1037E00009007D19F114D9BF93172900CE9783A73B
:1037F0000708E39847FF5840DC407D17631827030C
:1038000023222401F9DF832C44006388090083A666
:10381000091033172C01F98E89EE8297584083A73F
:103820000B00E31197F9E30EF4FAADBF23A20400F5
:10383000D1BF93162900CE968C4283A64910758F6E
:1038400001E756858297D9BF2E858297C1BF411166
:1038500006C6EFF05F8713057005EFF09F99EFF054
:103860007FA9B24041016FC03F9C8280411126C2B6
:10387000B744014022C49375F50F2A841385048050
:1038800006C69384048099289D452685A1286DDD70
:10389000B24022852244924441018280011122CC0F
:1038A00026CA4AC84EC606CEB2842E843389C500C5
:1038B000A949631A2401F24062444249B24926856B
:1038C000D24405618280034504004D3783470400DC
:1038D000639437013545593F0504E1BF93F5F51F62
:1038E0004CC1828093D7650093F7F73FAA9788432E
:1038F0003355B500058982802A8E014863DA0500B8
:10390000B337A000B305B0409D8D330EA0407D5865
:1039100063DC06003337C000B307D0401348F8FF1C
:10392000B386E7403306C040B288B68FF28E2E834E
:1039300063950622370700081307C77B63F2C50C9F
:10394000C1676378F60A9307F00FB3B7C7008E0715
:10395000B356F60036970347070093060002BA975E
:103960003387F640638CF600B395E500B357FE004D
:10397000B318E60033E3B700B31EEE0013D5080119
:10398000B355A30213960801418293D70E013377F2
:10399000A302AE863303B6024207D98F63FC6700E9
:1039A000C6979386F5FF63E7170163F56700938673
:1039B000E5FFC697B387674033F7A702C20E93DED1
:1039C0000E01B3D7A7024207B36ED7013306F60242
:1039D0003E8763FBCE00C69E1387F7FF63E61E019A
:1039E00063F4CE001387E7FF13950601598D014359
:1039F0005DA8B7060001C147E36CD6F4E14789BF73
:103A000001E68548B3D8D802C16763FAF80A93077C
:103A1000F00F63F31701A14FB3D7F8013E97834727
:103A2000070093060002FE973387F6406390F60A7C
:103A3000B3851541054313D508011396080141824A
:103A400013D70E01B3D7A502B3F6A502B305F6024C
:103A5000C206558FBE86637CB70046979386F7FFF4
:103A6000636717016375B7009386E7FF46970D8F6D
:103A7000B377A702C20E93DE0E013357A702C20727
:103A8000B3EED7013306E602BA8763FBCE00C69ECB
:103A90009307F7FF63E61E0163F4CE009307E7FF89
:103AA000139506015D8D9A85630A08003337A000DF
:103AB000B3076040B385E7403305A0408280B70775
:103AC0000001C14FE3EAF8F4E14FB9B7B398E80059
:103AD00033D5F500B31EEE00B395E500B357FE00F5
:103AE00013DE080133E6B700B357C5039395080109
:103AF000C1813377C503135506013E83B386F502B2
:103B00004207498F637CD70046971383F7FF6367AB
:103B100017016375D7001383E7FF4697B306D740B5
:103B200033F7C60342064182B3D6C6034207B387C2
:103B3000D502B365C700368763FCF500C6951387C9
:103B4000F6FF63E7150163F5F5001387E6FFC695F9
:103B500042039D8D3363E300F9BD63E1D514C16772
:103B600063FFF6021307F00FB337D7008E0737074E
:103B7000000833D5F6001307C77B2A9703470700D1
:103B80003E97930700023383E7406391E7020545C0
:103B9000E3EBB6F03335CE001345150029B73707F0
:103BA0000001C147E3E5E6FCE147D1B7B357E600C2
:103BB000B3966600DD8E33D5E500B39765003357C5
:103BC000EE0093DF0601B365F7003377F503331F8B
:103BD000660013960601418293D705013355F5031C
:103BE0004207D98FB308A602AA8E63FC1701B697C5
:103BF000930EF5FF63E7D70063F51701930EE5FF1A
:103C0000B697B3871741B3F8F703C205C181B3D79D
:103C1000F703C20833E7B8003306F602BE85637CBB
:103C2000C70036979385F7FF6367D7006375C700B2
:103C30009385E7FF369713950E01C16E4D8D9386E0
:103C4000FEFFB375D500118FB376DF001356050163
:103C5000135F0F01B388D502B306D60293D70801CC
:103C6000B385E503B695AE973306E60363F3D70055
:103C7000769693D6070136966360C702E319C7D6D6
:103C800041677D17F98FC207B3F8E800331E6E0055
:103C9000C6970143E379FEE07D1591BB01430145E1
:103CA00019B5AA88AE87328836854683639906207F
:103CB000B70600089386C67B63F0C50C4167637640
:103CC000E60A1307F00F3337C7000E073355E60037
:103CD000AA9683C60600130500023697B306E54090
:103CE000630CE500B397D70033D7E8003318D6004C
:103CF000B365F7003393D80093580801B3D7150381
:103D000013160801418213570301B3F615033E85CC
:103D1000B305F602C206558F637CB7004297138540
:103D2000F7FF636707016375B7001385E7FF4297E5
:103D30000D8FB37717034203135303013357170350
:103D4000C20733E36700B306E6023A86637BD3001B
:103D500042931306F7FF636603016374D3001306EF
:103D6000E7FF4205518D81455DA8370500014147B8
:103D7000E36EA6F4614799BF01E605473358C702D1
:103D80004167637FE8081307F00F6373070121455C
:103D90003357A800BA9603C70600130600022A97F5
:103DA000B306E6406315E608B38707418545935897
:103DB000080113160801418213570301B3F61703D4
:103DC000B3D71703C206558F330EF6023E85637CC8
:103DD000C70142971385F7FF636707016375C70142
:103DE0001385E7FF42973307C741B37717034203B1
:103DF0001353030133571703C20733E36700B306B6
:103E0000E6023A86637BD30042931306F7FF6366AC
:103E100003016374D3001306E7FF4205518D8280CE
:103E2000370700014145E365E8F6614595B733186A
:103E3000D800B3D5E7003393D800B397D70033D772
:103E4000E800935808013366F70033F7150393171A
:103E50000801C18313550601B3D515034207498FE5
:103E6000B386B7022E85637CD70042971385F5FF92
:103E7000636707016375D7001385E5FF4297B306B3
:103E8000D74033F7160342064182B3D616034207E2
:103E9000B388D702B367C700368763FC1701C297A0
:103EA0001387F6FF63E7070163F517011387E6FF42
:103EB000C29793150501B3871741D98DCDBD63E234
:103EC000D514416763FFE6021307F00FB335D7003F
:103ED0008E053707000833D5B6001307C77B2A972E
:103EE00003470700130500022E97B305E540631151
:103EF000E5020545E3E5F6F233B5C80013451500C4
:103F000039BF37070001C145E3E5E6FCE145D1B71C
:103F10003353E600B396B6003363D3001355030161
:103F2000B31EB60033D6E700B376A602B397B70048
:103F300033D7E8003368F70093170301C1831357A1
:103F400008013356A602C206558F338FC702328E40
:103F5000637CE7011A97130EF6FF636767006375CA
:103F6000E701130EE6FF1A973307E741B376A7027E
:103F70003357A702C2063386E70293170801C183AD
:103F8000D58FBA8663FCC7009A979306F7FF63E75D
:103F9000670063F5C7009306E7FF9A9713150E01B4
:103FA000416E558D9306FEFF3378D500918FB3F6A1
:103FB000DE001356050193DE0E013303D802B3066B
:103FC000D602135703013308D803369842973306B5
:103FD000D6036373D700729693560701369663E053
:103FE000C702E392C7D8C167FD177D8F42073373BD
:103FF000F300B398B8001A978145E3F2E8E27D1523
:084000009DB38145014521BD7E
:044008000000002094
:04400C001214000882
:1040100000000000000000000000000000000000A0
:104020000000000000000000000000000000000090
:104030000000000000000000000000000000000080
:104040000000000000000000000000000000000070
:104050000000000000000000000000000000000060
:104060000000000000000000000000000000000050
:0840700000F36F0600000020C0
:040000050800015C92
:00000001FF
